:020000040800F2
:1000000038050120190300083703000839030008E8
:100010003B0300083D0300083F0300080000000008
:100020000000000000000000000000004103000884
:1000300043030008000000004503000847030008D0
:100040004903000849030008490300084903000860
:100050004903000849030008490300084903000850
:100060004903000849030008490300084903000840
:100070004903000849030008490300084903000830
:1000800049030008490300087F4A000849030008A3
:100090004903000849030008490300084903000810
:1000A0004903000849030008490300084903000800
:1000B000C72B00084903000849030008490300084A
:1000C00049030008490300084903000849030008E0
:1000D00049030008490300084903000849030008D0
:1000E00049030008490300084903000849030008C0
:1000F00049030008490300084903000849030008B0
:10010000490300084903000849030008490300089F
:100110004903000849030008F52B000849030008BB
:10012000490300084903000849030008490300087F
:10013000490300084903000849030008490300086F
:10014000490300084903000849030008490300085F
:10015000490300084903000849030008490300084F
:10016000490300084903000849030008490300083F
:10017000490300084903000849030008490300082F
:10018000490300084903000800F002F800F0B2F843
:100190000AA090E8000C82448344AAF10107DA45E2
:1001A00001D100F0A7F8AFF2090EBAE80F0013F082
:1001B000010F18BFFB1A43F0010318473460010018
:1001C000546001000A444FF0000C10F8013B13F09A
:1001D000070408BF10F8014B1D1108BF10F8015BA0
:1001E000641E05D010F8016B641E01F8016BF9D193
:1001F00013F0080F1EBF10F8014BAD1C0C1B09D1EA
:100200006D1E58BF01F801CBFAD505E014F8016B5B
:1002100001F8016B6D1EF9D59142D6D370470000ED
:100220000023002400250026103A28BF78C1FBD8FF
:10023000520728BF30C148BF0B6070476E2910F0CD
:10024000FF81702910F05482662913F08086652999
:1002500013F07D86672913F07A866129AFF3008059
:1002600003681B0A28BF41F08001692910F0AC81A6
:10027000642910F0A981752910F0A6816F2911F069
:100280008580782910F02082E92911F01D80E42969
:1002900011F01A80F52911F01780EF2911F08280F2
:1002A000F82910F01F820368DB0928BF41F08001A4
:1002B000632910F09E87732910F0A387E32911F0BA
:1002C000B183F32911F0B683002070471FB513F0F6
:1002D000BAFD11F007FB04000020002113F0C0F963
:1002E000401C60600020002113F0A4F9E0601FBDF5
:1002F00010B510BD11F0F0FD1146FFF7E7FF00F05B
:100300008DFD12F03FF803B4FFF7F2FF03BC12F0CB
:1003100053F8000040BA70470F4810490268006067
:100320008A4203D00E4880470E4800470E48D0F856
:1003300000D040680047FEE7FEE7FEE7FEE7FEE785
:10034000FEE7FEE7FEE7FEE7FEE700000748084994
:10035000084A094B70470000F01F0020EFBEADDED9
:100360006B1A0008890100080000FF1F38FF0020F9
:1003700038050120380101203801012030B512F480
:10038000805F1FD103684D000324AC40A34303608A
:10039000C3684D000324AC40A343C36012F0010FB7
:1003A00006D0C3684D000124AC402343C36036E04F
:1003B00012F0020F33D0C3684D000224AC40234337
:1003C000C3602CE012F4007F02D001238B4002E0D6
:1003D0004FF480338B40836112F4807F04D04368F4
:1003E00001248C402343436083684D000324AC40C8
:1003F000A343836012F4806F05D083684D0003240B
:10040000AC402343836003684D000224AC40A34307
:10041000036003684D000124AC402343036030BDFA
:1004200070B500290CDB07290ADC046A8E000F2551
:10043000B540AC438D0002FA05F52C43046213E08D
:10044000082910DB0F290EDC446AA1F10805AE0073
:100450000F25B540AC43A1F10805AD0002FA05F542
:100460002C43446200E070BDC4684E000325B540D3
:10047000AC43C46013F0010F06D0C4684E000125E0
:10048000B5402C43C46008E013F0020F05D0C468E7
:100490004E000225B5402C43C46013F4807F04D085
:1004A000446801258D402C43446084684E00032538
:1004B000B540AC43846013F4806F05D084684E006F
:1004C0000325B5402C43846004684E000125B540E7
:1004D000AC43046004684E000225B5402C43046020
:1004E00000BFC0E710B5B048006840F00100AE4959
:1004F000086000220121AD48FFF740FF4FF4805211
:100500000221AA48FFF73AFF4FF480520321A7487F
:10051000FFF734FF00220621A448FFF72FFF012236
:100520000721A248FFF72AFF012208219F48FFF771
:1005300025FF9D48006840F002009B4908608A142E
:1005400001219B48FFF71AFF4FF49052022198486F
:10055000FFF714FF002204219548FFF70FFF4FF427
:10056000805205219248FFF709FF01220A21904895
:10057000FFF704FF4FF480520C218D48FFF7FEFE79
:100580004FF490520D218A48FFF7F8FE01220E2108
:100590008748FFF7F3FE01220F218548FFF7EEFEA3
:1005A0008148006840F004007F490860012203216F
:1005B0008048FFF7E3FE4FF480520B217D48FFF7A0
:1005C000DDFE4FF480520D217A48FFF7D7FE01225D
:1005D0000F217848FFF7D2FE7348006840F008000A
:1005E000714908608A1403217348FFF7C7FE01228E
:1005F00004217148FFF7C2FE012205216E48FFF772
:10060000BDFE002206216C48FFF7B8FE002207213C
:100610006948FFF7B3FE00220A216748FFF7AEFEE4
:1006200001220B216448FFF7A9FE01220C21624838
:10063000FFF7A4FE01220D215F48FFF79FFE012274
:100640000E215D48FFF79AFE4FF480520F215A4861
:10065000FFF794FE5448006840F0100052490860CB
:10066000002211465548FFF789FE00220121534818
:10067000FFF784FE4FF4905202215048FFF77EFEB0
:100680004FF4905203214D48FFF778FE4FF480520B
:1006900004214A48FFF772FE4FF480520521474873
:1006A000FFF76CFE002206214448FFF767FE43482F
:1006B0000069C0F380144FF4805206213F48FFF7D1
:1006C0005DFE012207213D48FFF758FE0122082167
:1006D0003A48FFF753FE012209213848FFF74EFE42
:1006E00001220A213548FFF749FE01220B21334838
:1006F000FFF744FE01220C213048FFF73FFE0122A4
:100700000D212E48FFF73AFE4FF480520E212B4860
:10071000FFF734FE00220F212848FFF72FFE224862
:100720001430006840F480401F49143108602448A8
:10073000C06840F440512248C160C06840F4407134
:100740001F48C1601F48006840F040001D49086014
:100750000846006840F0800008601A480C300068C5
:1007600020F0400017490C3108600846006820F06E
:1007700080000860081F006820F04000091F086022
:100780000846006820F0800008600E4814300068B9
:1007900040F040000B49143108600846006840F002
:1007A00080000860204610BD303802400000024042
:1007B0000004024000080240000C02400010024009
:1007C00000380140003C0140FE48006840F4003021
:1007D000FC4908605320FC49088040F2E730091DBD
:1007E00008604010F8490C310860F7480838008864
:1007F00040F00100F44908390880F34810380088B7
:1008000040F06000F04910390880081F008840F06F
:100810000100091F0880EC482838008840F00100DA
:10082000E94928390880E748006840F48030E54904
:1008300008602020E54908810846008940F007004B
:100840000881002008854FF6FF70C86208460088BE
:1008500040F0010008807047DC48406A80B2704771
:100860000246501A80B2704710B5D648001F006883
:1008700040F08000D349091F08605320D449088004
:100880000020091F0860CF481438006840F00100BC
:10089000CC4914390860002309220621CD48FFF70E
:1008A000BFFD9FEDCD0ACD4880ED000A90ED000A16
:1008B000BCEEC00A10EE100A80B2401EC449091DE9
:1008C00008600020C2490C3108606020C04910391E
:1008D0000880BF480838008840F00100BC4908394A
:1008E0000880BB481438008840F00100B84914392A
:1008F0000880B7482838008840F00100B4492839FA
:10090000088010BD10B52DED028BB0EE408AB348C3
:1009100090ED000A28EE000A10EE101A084613F0B7
:1009200045FAAB490C310860BDEC028B10BDA548FF
:10093000006840F48020A34908605320A84908803B
:100940004FF6FF70091F0860A549091D0860A448FB
:100950002838008840F00800A14928390880084656
:10096000008840F001000880704740429C49091F00
:1009700008609B482838018841F001010180018806
:10098000C907FCD1704710B58E48001F006840F0C1
:1009900008008C49091F08608A482438006840F024
:1009A000080088492439086000E000BF85482438E1
:1009B000006810F0080FF8D082482438006820F052
:1009C0000800804924390860002086490880091FF2
:1009D00008607C481438006840F0010079491439F7
:1009E00008600023022219467A48FFF719FD4FF0EC
:1009F000FF307C49091D086057207A49203908805A
:100A000078481038008840F0010076491039088095
:100A1000081F008840F00100091F0880714828382D
:100A2000008840F001006F49283908806548001FA0
:100A3000006840F002006349091F086000206A490D
:100A40000880091F08605F481438006840F0020001
:100A50005C49143908600023022219466348FFF7F5
:100A6000DFFC41F267006049091D086040105E49E3
:100A70001431086008460068091F08604FF4E04020
:100A80005949103908807020091D0880081D008808
:100A900040F48070091D088053481438008840F0E5
:100AA000010051491439088010BD20B1012813D02C
:100AB00003282DD11EE04C490839098821F488719A
:100AC000494A083A118048492839098821F001012A
:100AD000454A283A11801BE043490839098841F406
:100AE0008071414A083A11801146098841F48071A9
:100AF00011800DE03C490839098841F488713A4A6F
:100B0000083A11801146098841F48071118000BFB4
:100B100000BF704730B50346FFF79EFE044600E075
:100B200000BFFFF799FE05462146FFF799FE984260
:100B3000F6DB30BD02462E4850434FF47A73B0FBCB
:100B4000F3F1B1F1807F01D3012070474FF0E02035
:100B5000006940F001004FF0E02318611846416140
:100B60000020F2E74FF0E020006900F48030704789
:100B700010B548B91F4B19681E4B283B1B681E4C0B
:100B800023601C4B243B1A680E4B1B1F1B6843F051
:100B900080530C4C241F2360184B1B6843F4807354
:100BA000164C2360074B2C331B6843F48033054CF1
:100BB0002C34236023461B6823F4803323602346B0
:100BC0001B681DE0443802402844014000400140B9
:100BD000281C00400000024000007A440000002071
:100BE00028480140280C004028040040000402402E
:100BF000A037A0002828004004000020007000401A
:100C000043F44073236023461B6843F4004323608E
:100C1000CA237B4C236053232360794B183B1B680A
:100C200043F08003764C183C236000E000BF744B17
:100C3000183B1B6813F0400FF8D0714B143B1B6836
:100C40006FF30E0342F20F7423446D4C143C236087
:100C500023461B6823F4FE0343F4C6032360694B59
:100C60001B68674C243C2360674B241D2360644B46
:100C7000183B1B6823F08003614C183C236000E0A4
:100C800000BF5F4B183B1B6813F0800FF8D1FF23A8
:100C90005B4C23605A4B183B1B6823F02003584CD5
:100CA000183C236010BD5949096841F08051574AEA
:100CB00011605749096841F48071554A11605349E0
:100CC0003031096841F48031504A303211601146A8
:100CD000096821F4803111601146096840F205125B
:100CE00011434A4A303211601146096841F400410B
:100CF000116028B14749098841F00101454A118036
:100D0000CA213F4A1160532111603D4918390968D1
:100D100041F080013A4A183A116000E000BF3849BA
:100D20001839096811F0400FF8D0354914390968AD
:100D30006FF30E0142F20F721144314A143A1160FE
:100D40001146096821F4FE0141F4803111602D49FA
:100D500009682B4A243A11602B49121D1160284959
:100D60001839096821F08001254A183A116000E01D
:100D700000BF23491839096811F0800FF8D1FF210D
:100D80001F4A11601E491839096821F020011C4AC8
:100D9000183A11607047204901401A4A11607047A3
:100DA000CA21174A11605321116015491839096881
:100DB00041F08001124A183A116000E000BF10496A
:100DC0001839096811F0400FF8D0134901400C4A56
:100DD000243A11600A491839096821F08001084A4B
:100DE000183A1160FF21064A11607047044B1B1D21
:100DF0001A68034B243B18681B1D196870470000D4
:100E0000242800400400002002441300403802401F
:100E100000700040000400407F7F3F00002713F077
:100E200012F800F0DAFC03F03FF8002003F0C6F8F7
:100E300003F069F808F0FAF9FFF754FB0AF080F8BC
:100E4000FFF7C2FC6420FFF775FE0BF097FD03F07F
:100E500069FF0A2006F05EFAFFF769FDFFF793FDD0
:100E600001F0F8FD0020FFF796FF0120FFF780FE5C
:100E700008F0E8F80BF0CEFE09F064FF6420FFF7FD
:100E800049FE0820EF490860C003EF49086003F0FD
:100E900073FC9FEDEE0A03F0ABFEED4803F0DFFDBF
:100EA00003F0DEFE01F0EAF94FF48020E9498861A1
:100EB00040008861E848C168012088476420FFF746
:100EC00029FEE6A00DF03CFDEDA00DF039FDE3A0FC
:100ED0000DF036FDF348D0F80E10F3A00DF030FD04
:100EE0009FEDF70B53EC102BF7A00DF029FDD54823
:100EF0000838006810F4806F01D0FAA000E0FCA070
:100F00000146FEA00DF01CFD0DF0B8FD6420FFF7BA
:100F100001FE002308225102FB4801F06EF8FA4856
:100F20000068FA4990FBF1F01C2803D1F6480068EC
:100F3000F7490860F6480168F6A00DF001FDF24897
:100F40004068002807DBF0484068632803DCEE486F
:100F50004068EF494860EE484168F2A00DF0F0FCAF
:100F600001200BF038FE022009F02BFD0EF0E4FA10
:100F700000200EF058FB0EF0FBF9EE480DF094FD4A
:100F80004FF420700EF016FBE14A5068B24A9168A7
:100F90008847B14841683C208847C248D0F80E20B5
:100FA000E5A14FF4FA600BF0ABFA00F043FE044603
:100FB000002C2BD1E748806F20F4807000F5807002
:100FC000E4498867E4A00DF0BBFCE749E7A00DF019
:100FD000B7FCE54830384168E9A00DF0B1FCE24AC1
:100FE000EBA14FF4FA600BF08BFADF48303802F0D7
:100FF000E5FF0021DC48303808F075F9EA488368DD
:10100000C2684168E9480DF09BFC08E02146E8A071
:101010000DF096FCEEA14FF4FA600BF071FA00238C
:101020004FF4B6721946EF4800F0E7FF0446CE4889
:101030003038D0F8048064BBEA48D0F86801A0F5E5
:10104000AC41783925D1E7480068404521D1C148F5
:10105000806F20F4007000F50070BE498867E2A040
:101060000DF06EFC8422DF497C31CF480FF09CFDEF
:101070006822E649E6480FF097FD7422D949083105
:10108000E4480FF091FDE34A1068734A51688847BD
:1010900002E0E1A00DF054FC06F0EDF805E005F0EB
:1010A000D4FE0BF0C0FC0DF096FB06F0E9F8012829
:1010B000F5D1E148D0F89000012807D0DFA14FF426
:1010C000FA600BF01DFAE4A00DF0FAFBA148B0F8AD
:1010D0007800C0F3002000284CD0E8A10A200BF0D3
:1010E0000FFAED49C8688047AF48007D10F0010F46
:1010F00008D005F09CFE01E004F0C2F805F09BFE6C
:101100000128F9D10DF0BAFCCB48C06F022804D1F8
:10111000A548007D10F0020F0AD005F088FE03E01C
:1011200005F0A9F80DF0AAFC05F085FE0128F7D11D
:10113000C148C06F02280AD1D8A00DF001FCE0A17F
:101140004FF4FA600BF0DCF902F0F8F810E0D24945
:1011500088688047B848E0A1D0F880204FF4FA6052
:101160000BF0CEF9B448D0F88010E1A00DF0E8FB08
:101170000DF084FC002002F038F9A64814300FC8A6
:1011800001F04CFBE6A00DF0DBFBFBE208F07BF985
:10119000EA48406BC0F3005040B1BF4988688047BF
:1011A000E7A248F6BA01812006F004FAE348406B52
:1011B000C0F3005028B9E14890F83400C0F3C010E3
:1011C00010B1022008F011FEDC4890F83400C0F3A2
:1011D0004000A8B35F48806F20F020005D49886719
:1011E000D648406B20F00800D44948630020C8620C
:1011F000584890F87800C0F3400078B1554890F80E
:10120000780010F0010F03D040F2644006F0D2F9EC
:101210005048806F20F002004E4988674D4890F892
:101220007800C0F3800058B14A4890F8780010F078
:10123000010F03D040F2664006F0BCF9454887E153
:101240008BE10000180C0240180402402EBA683FDF
:10125000593C000800100240B80400200D0A2D2D52
:101260002D2D2D2D2D2D2D2D2D2D2D2D2D2D2D2DAE
:101270002D2D2D2D2D2D2D2D2D2D2D2D2D2D2D00CB
:101280000D0A4B42443130312042525553484C45AF
:101290005353204D4F544F5220434F4E54524F4CB6
:1012A0004C455200A74001080D0A0A4669726D7745
:1012B000617265207265763A092530365800000063
:1012C00000000000000055400D0A53797374656DED
:1012D00020636C6F636B3A09252E3266204D487A85
:1012E000000000006F6E2074686520687562000061
:1012F0007374616E64616C6F6E6500000D0A4D6FF2
:1013000064653A09092573001000002040420F006F
:10131000080000200D0A556E697420532F4E3A09BB
:10132000256400000D0A436F6E74726173743A098C
:10133000256400007057010854686F726C61627315
:10134000204B42443130310A5377526576202530A4
:1013500036580000C80500200D0A0A4F6E6557690F
:1013600072653A094F4B2E00E00700200D0A5374B6
:1013700061676520747970653A09252E387300001D
:101380000D0A537461676520532F4E3A0925640096
:10139000537461676520636F6E6E65637465643A4C
:1013A0000A252E3873000000EC0A00205040010886
:1013B0000D0A0A4F6E6557697265204572726F7229
:1013C0002C20537461747573203D20256400000047
:1013D0004572726F720A556E6B6E6F776E20737402
:1013E00061676500440600200D0A466F756E642033
:1013F00076616C696420453250524F4D20706172A5
:10140000616D65746572732E0D0A0000440700203B
:1014100034970020540500200D0A496E76616C69EE
:101420006420453250524F4D20706172616D657479
:101430006572732E0D0A0000000A00205068617367
:10144000652063757272656E740A63616C696220EF
:101450006572726F72000000506861736520637579
:101460007272656E742063616C6962726174696F17
:101470006E206572726F722E0000000050686173FA
:101480006520696E69740A506C65617365207761C7
:1014900069742E2E2E000000700B00200D0A50687B
:1014A00061736520696E697469616C697A617469D8
:1014B0006F6E20636F6D706C657465642E00000044
:1014C000506861736520696E69740A636F6D706C32
:1014D000657465642E000000506861736520696E54
:1014E00069740A6661696C656420282564292E0088
:1014F0000D0A506861736520696E697469616C6971
:101500007A6174696F6E206661696C65642C206510
:1015100072726F7220636F6465203D2025642E0017
:101520000D0A507265737320456E74657220666F84
:1015300072206D656E750D0A00000000DC960020BB
:10154000427573206F76657263757272656E740092
:10155000806F20F004008C4988678C4890F8340034
:10156000C0F3800088B1884890F87800C0F340004C
:1015700058B18548806F20F002008349886708468B
:10158000806F20F00400001D8867814807F0D4FCBC
:101590000546902D03D17FA00DF092F91BE07C4809
:1015A000D0F80001012816D1012179480DF034F955
:1015B0007F4A0021764806F0A0F80646012E06D1A3
:1015C0007B4807F000FD002179480DF025F9022045
:1015D0006F49C1F8000107F00EFDFFF73DF98046A5
:1015E0003946FFF73DF9642877DDFFF735F90746FF
:1015F000654890F87800C0F3001018B140F29140AF
:1016000005F0D8FF08F05FFA6048C069062810D1DD
:101610005D4890F87800C0F3C00098B140F24440B3
:1016200005F0C8FF5848806F20F0080056498867C9
:1016300008E05648C069072804D15EA20021812035
:1016400005F0B8FF09F050FC4F49C8600846406AF1
:10165000012819D15B4A516C4B4AD06808F0B0FCA4
:101660004949896F60F38A2147488167B0F878005B
:10167000C0F3802040B14448806F20F0020042490E
:10168000886702204149C8624F48006900F00100A4
:1016900080F001003C49C861C86909F0FAFC3A4988
:1016A00008620846006A28B33848808EC0F340308C
:1016B00010B93648C069E8B1032008F001FA08F013
:1016C00090FB3148806F20F002002F4988672F4837
:1016D000C06A012802D1012101E038E000212A4836
:1016E000806F61F38200284988670020086237A074
:1016F0000DF026F9244B5A69D968186A283309F085
:101700006BFD21494862486A0AF0F1F92E480069E8
:10171000012121EA50001C49086108690AF03CFFD8
:10172000194948610A46916A506A0AF0B6FF16499B
:10173000C8620846C06A012801D1002088621248A8
:101740004069012803D11049C86D05F097FF214871
:10175000C2694169012001F077F80B49C8661D484C
:10176000026A8169022001F06FF807490867C86EB4
:1017700008F0FBFD0449086F08F0F7FD0BF053F982
:101780000DF029F802E50000C8050020DC960020D5
:1017900054010020496E76616C69642041505420E8
:1017A0006D65737361676520666F726D61742E007D
:1017B000C48C0020486F6D696E67206661696C6536
:1017C0006400000034970020001002400D0A53749A
:1017D0006F7021005405002070474249424A116051
:1017E00039215160AFF20F01404A516000219160F0
:1017F00091611162D1605161516291620121D162A6
:10180000002111661146896F21F040019167114650
:10181000896F21F0800191670021516751664FF473
:10182000004191661146896F21F0020191671146CE
:10183000896F21F0040191671146896F21F0100131
:1018400091671146896F21F00101491C91670021C0
:10185000116391639164D16451650A21116545F268
:101860007861D1651146896F21F400719167114645
:10187000896F21F4807191671146896F21F480612D
:1018800091673C211A4A116041F270715160022146
:101890009160002005E0002215490C3141F820201C
:1018A000401C0228F7DB0121114A51610122104935
:1018B000CA610A228A6101220A6200210C4A51622D
:1018C00000220B498A62CA620A634A638A63094A30
:1018D000CA6300220A6401228A640121064A516512
:1018E00070470000003FAB0108000020C805002041
:1018F00054050020A08601003497002010B5002078
:10190000002105226F4B1B6843F4A0236D4C23601C
:1019100000BF00BF6B4B1B6803F40031401C11B9C2
:10192000B0F5705FF6D151BB664B1B6823F4803372
:10193000644C236000E000BF624B1B6813F4803FDF
:10194000F9D1604B1B6823F480235E4C236000E0D8
:1019500000BF5C4B1B6813F4802FF9D1594B1B68F7
:1019600043F48033574C2360002000BF554B1B6865
:1019700003F40031401C11B9B0F5705FF6D1514B42
:101980001B68C3F3404100296ED04E4B40331B68A7
:1019900043F080534B4C403423604B4B1B6843F463
:1019A0000043494C2360022242F4E063474C236029
:1019B00000E000BF454B1B6803F007039342F8D1DA
:1019C000404B08331B683F4C0834236023461B6898
:1019D000236023461B6843F48053236023461B681F
:1019E00023F4F81343F42023236023461B6823F0D9
:1019F0007C53236023461B6843F0806323602346A7
:101A00001B6843F06053236023461B6823F0404368
:101A1000236023461B6843F0804323602C4B241F24
:101A20002360231F1B6843F08073241F236000E0A2
:101A300000BF244B1B6813F0007FF9D0214B083303
:101A40001B6823F003031F4C0834236023461B68E4
:101A500043F00203236000E000BF1A4B08331B6809
:101A600003F00C03082BF7D110BD10B5194800681E
:101A700040F47000174908601248006840F0010007
:101A80001049086000200F49083108600D480068BF
:101A9000114908400B4908601048091D0860081FDB
:101AA000006820F48020091F0860002005490C31DF
:101AB0000860FFF723FF4FF0006006498039086097
:101AC00010BD00000038024000700040003C0240A1
:101AD000052A410788ED00E0FFFFF6FE10300024E4
:101AE00010B54FF48040524988614FF4F070FEF712
:101AF0003CFF4FF080404E4988614620FEF735FF9D
:101B00004B480069012121EAD03080F001044FF4F4
:101B1000CD70FEF72AFF204610BD10B5044674B103
:101B20004FF48040424988610620FEF71EFF4FF0C7
:101B300080403F4988614020FEF717FF0DE04FF4D9
:101B400080403B4988613C20FEF70FFF4FF080400A
:101B5000374988610A20FEF708FF10BD10B54FF421
:101B60008040334988610620FEF7FFFE4FF0804039
:101B70002F4988610920FEF7F8FE2D4800690121F0
:101B800021EAD0343720FEF7F0FE204610BD70B5B4
:101B90000446002506E004F00100FFF7BEFF6410D4
:101BA000681CC5B2082DF6DB70BD70B50024002599
:101BB00007E06410FFF7D2FF08B144F08004681C0E
:101BC000C5B2082DF5DB204670BD70B5054672B66E
:101BD0004FF0804016498861002404E04FF47A7089
:101BE000FEF7C3FE641C642CF8DBFFF779FFB8B185
:101BF0000126CC20FFF7CBFFF020FFF7C8FF002025
:101C0000FFF7C5FF0020FFF7C2FF002404E0FFF745
:101C1000CCFF05F8010B641CB4F5007FF7DB00E096
:101C200000264FF480400249886162B6304670BD9C
:101C3000001002402DE9F047DD48FFF7C6FF81465E
:101C4000B9F1000F02D10120BDE8F087D84C20780F
:101C5000252801D00220F7E76078C0F100080025B0
:101C600003E0D348405D80446D1CB5F5007FF8DB90
:101C700008F0FF016078814201D00320E4E760882A
:101C8000FEF748FB60806068FEF744FB6060A06878
:101C9000FEF740FBA060E068FEF73CFBE0602069D7
:101CA000FEF738FB20616069FEF734FB6061A069D4
:101CB000FEF730FBA061E069FEF72CFBE061206AD3
:101CC000FEF728FB2062606AFEF724FB6062A06AD0
:101CD000FEF720FBA062E06AFEF71CFBE062206CCE
:101CE000FEF718FB2064606CFEF714FB6064A06CC8
:101CF000FEF710FBA064E06CFEF70CFBE064206DC7
:101D0000FEF708FB2065606DFEF704FB6065B4F824
:101D10005800FEF7FFFA81B204F14400A4F858100D
:101D2000B4F85A00FEF7F6FA81B204F14400A4F8C0
:101D30005A10B4F85C00FEF7EDFA81B204F14400E9
:101D4000A4F85C10D4F85E00FEF7E4FAC4F85E0074
:101D5000B4F86200FEF7DEFA81B204F14400A4F8A0
:101D60006210B4F86400FEF7D5FAA4F86400B4F980
:101D70006600FEF7CFFA01B204F14400A4F8661041
:101D8000B4F96800FEF7C6FA01B204F14400A4F801
:101D90006810B4F96A00FEF7BDFA01B204F144001C
:101DA000A4F86A10B4F86C00FEF7B4FA81B204F13A
:101DB0004400A4F86C10B4F96E00FEF7ABFA01B25F
:101DC00004F14400A4F86E10B4F97000FEF7A2FA12
:101DD00001B204F14400A4F87010B4F87200FEF7E8
:101DE00099FA81B204F14400A4F87210B4F97400B5
:101DF000FEF790FA01B204F14400A4F87410D4F88C
:101E00007600FEF787FAC4F87600B4F97A00FEF798
:101E100081FA01B204F14400A4F87A1000250EE022
:101E200004F17C0101EB4501B1F90000FEF772FA03
:101E300001B204F17C0000EB450001806D1C0D2D0A
:101E4000EEDB00250EE004F1960101EB4501B1F94E
:101E50000000FEF75FFA01B204F1960000EB4500C6
:101E600001806D1C022DEEDB00250EE004F19A01CD
:101E700001EB4501B1F90000FEF74CFA01B204F1A3
:101E80009A0000EB450001806D1C022DEEDBB4F9D9
:101E90009E00FEF73FFA01B204F14400A4F89E1040
:101EA000B4F9A000FEF736FA01B204F14400A4F838
:101EB000A010B4F9A200FEF72DFA01B204F144001B
:101EC000A4F8A21000250EE004F1A40101EB4501E5
:101ED000B1F90000FEF71EFA01B204F1A40000EB14
:101EE000450001806D1C042DEEDB314890F8AC708C
:101EF00090F8AD6094F8AD0067F3000084F8AD0091
:101F0000C7F3410194F8AD0061F3420084F8AD00DD
:101F1000C7F3C10194F8AD0061F3C40084F8AD00CB
:101F2000C7F3401194F8AD0061F3451084F8AD009B
:101F3000B90994F8AD0061F3871084F8AD0094F806
:101F4000AC0066F3000084F8AC00C6F3410194F8DD
:101F5000AC0061F3420084F8AC00C6F3C00194F811
:101F6000AC0061F3C30084F8AC00C6F3011194F82F
:101F7000AC0061F3051084F8AC00C6F3801194F84E
:101F8000AC0061F3861084F8AC00F10994F8AC0061
:101F900061F3C71084F8AC00B4F8B000FEF7BAF9EA
:101FA00081B204F14400A4F8B01000204CE6000017
:101FB000B00700202DE9F04707460D464FF0000816
:101FC000FEF74AFC804600BFFEF746FC81464146CC
:101FD000FEF746FCA84201DD012000E00020064695
:101FE000384600F09FF904460EB9002CECD016B12B
:101FF0000120BDE8F0870220FBE72DE9F05F834672
:102000000E46174698464FF0010A5C46F019B0F5A7
:10201000005F02D30120BDE8F09F0FB90020FAE76E
:10202000012000F0A8F900F090F903219148FFF792
:10203000C1FF022801D00220EDE7A02000F097F9AF
:1020400003218D48FFF7B6FF022801D00220E2E706
:10205000C6F3072000F0A3F903218748801CFFF78F
:10206000A9FF022801D00220D5E7F0B200F097F9CD
:1020700003218148801CFFF79DFF022801D0022028
:10208000C9E7012000F077F900F05FF903217948F2
:10209000FFF790FF022801D00220BCE7A12000F04A
:1020A00066F903217348401CFFF784FF022801D022
:1020B0000220B0E74FF000091EE003216D483F30D9
:1020C000FFF778FF022801D00220A4E700F06BF9A7
:1020D0000546B8F1000F02D104F8015B0AE0BAF13D
:1020E000000F05D014F8011BA94201D1012000E026
:1020F0000020824609F10109781E4845DDD80020FC
:1021000000F039F903215B483F30FFF753FF022805
:1021100001D002207FE700F021F900F044F90546E4
:10212000B8F1000F02D104F8015B0AE0BAF1000F28
:1021300005D014F8011BA94201D1012000E00020C4
:102140008246BAF1010F01D0012064E7002062E766
:102150002DE9F84F81460D461646A819B0F5005FE7
:1021600002D30220BDE8F88F0EB90120FAE7C84675
:102170002C4674E004F01F07AC4200D087BB01205E
:1021800000F0F9F800F0E1F803213A48FFF712FFF8
:10219000022801D01E20E5E7A02000F0E8F8032186
:1021A0003548FFF707FF022801D01F20DAE7C4F304
:1021B000072000F0F4F803212F48801CFFF7FAFEF7
:1021C000022801D02020CDE7E0B200F0E8F803219A
:1021D0002948801CFFF7EEFE022802D02120C1E72B
:1021E000FFE718F8010B00F0DAF803212248801C01
:1021F000FFF7E0FE022801D02220B3E71F2F03D013
:10220000A819401EA04229D100F0A8F8FEF724FB2F
:10221000834600BF00F099F803211648FFF7CAFE75
:10222000022801D023209DE7A02000F0A0F8022181
:102230001148FFF7BFFE022800D10EE0FEF70CFBAD
:1022400059460090FEF70CFB142801DD012000E048
:1022500000208246BAF1000FDCD000BF641CA81930
:10226000A04287D8BAF1000F01D101207AE72420DB
:1022700078E70000010003008200070010B54C4819
:10228000006840F002004A49086049481030006880
:1022900040F4001046491031086045481038006885
:1022A00040F400104249103908600846006820F4E4
:1022B000001008608B15042208213E48FEF7B0F894
:1022C0004FF48073042209213A48FEF7A9F83A48EE
:1022D000008820F03F0040F02A0037490880081F9E
:1022E000008820F00100091F08804FF48C703249EB
:1022F000183108802B20091D08802F48001F0088F6
:1023000040F480602C49091F0880EE202A49091DED
:1023100008802948001F008840F001002649091F55
:10232000088010BD10B50146234810300388001DF9
:10233000048843EA044020F07F4202EA0100884218
:1023400001D1012010BD0020FCE71B48001F0088C0
:1023500040F480701849091F088070471648001F14
:10236000008840F400701449091F08807047124922
:102370000C3108807047012808D10F49091F0988CE
:1023800041F480610C4A121F118007E00A49091FBD
:10239000098821F48061084A121F1180704706499C
:1023A0000C310880704704480C300088C0B2704778
:1023B0003038024000040240045400404FF4004012
:1023C000FE49086070474FF00040FC4908607047C4
:1023D000FA4808380068012121EAD0107047F74810
:1023E00008380068012121EA90107047F449096813
:1023F00021F08001F24A1160111F096821F080016B
:10240000121F1160EE490831096841F08001EC4A61
:1024100008321160012808D1E949091F096841F013
:102420008001E74A121F116007E0022805D1E44944
:10243000096841F08001E24A11607047E0480830C5
:102440000068C0F3C0107047DD480830006840F0F5
:102450008000DB49083108607047D949096821F0DC
:102460004001D74A1160111F096821F04001121F75
:102470001160D3490831096841F04001D04A08325F
:102480001160012808D1CE49091F096841F04001B7
:10249000CB4A121F116007E0022805D1C84909681C
:1024A00041F04001C64A11607047C54808300068D5
:1024B000C0F380107047C2480830006840F0400008
:1024C000BF4908310860704778B1012807D0022859
:1024D00011D10105BB4A9161410491610CE00421D5
:1024E000B84A91612021916106E00421B54A9161C9
:1024F000C904916100E000BF00BF704778B10128B6
:1025000007D0022811D1C104AE4A916181049161C2
:102510000CE00821AB4A91611021916106E008218D
:10252000A84A91614904916100E000BF00BF704773
:1025300008B1202101E04FF40011A34A1160704757
:1025400008B1022101E04FF400319F4A1160704749
:102550009D4808380068012121EA101070479B4807
:102560000069012121EA500070470021016098496B
:1025700041600022C2600021816070472DE9F04770
:102580008CB080460F4691464FF0000AB8F1010F1B
:1025900003D0B8F1020F11D107E08E488E490860D0
:1025A000AFF2DB05AFF277040CE08A4810308A49BD
:1025B0000860AFF2B705AFF2770403E000200CB07B
:1025C000BDE8F08700BFB9F1010F01D1012000E0A3
:1025D00000200646132F7DD2DFE807F00A11121300
:1025E000147C7C7C7C7C1B282C66A1D9292A2B009E
:1025F00079480068FFF7B9FF0220A8470BE100BF48
:1026000000BF00BF74480068FFF7AFFF0020A84775
:1026100001E171480068FFF7A8FF0EB9012100E051
:1026200000210846A0470120A847F4E000BF00BFF2
:1026300000BF00BFA7F10B0008281ED2DFE800F0A2
:1026400004091D1D1D0E1318022063490968086046
:1026500013E001206049096808600EE003205E492C
:102660000968086009E004205B490968086004E023
:10267000052059490968086000BF00BF5648006836
:1026800044600EB9012000E00020534909688860C9
:1026900051480068C6600120A8470EB9012100E03A
:1026A00000210846A047B6E04B480068FFF75DFFF1
:1026B0004A48406A01904A480199006A081A019004
:1026C0004648806A02904548C06A03900494434893
:1026D000426A00E09EE0C06A401E4049896A00FBF1
:1026E000012005903E480599006A081A05903B486C
:1026F000806A414206913948C16A0791344908917C
:10270000C06B09903548006C40000B900A96012080
:10271000A84701A800F019FA4FF0010A7BE02E4803
:102720000068FFF722FF2D48006B01902C480199AB
:10273000006A081A01902948406B404202902748DD
:10274000806B039004942548026B806B401E2349E4
:10275000496B00FB1120059021480599006A081A71
:1027600005901E48416B0691816B079118490891AD
:10277000C06B09901948006C40000B900A9601202C
:10278000A84701A800F0E1F94FF0010A43E0124820
:102790000068FFF7EAFE1148416A1148006A081A0A
:1027A00001900E48806A02900C48C06A039004941D
:1027B0000A48016B0A48006A081A13E0180C024024
:1027C0000C3C01400010024018040240000002408E
:1027D000D917000814970020180000205405002085
:1027E000000A002005908C48406B414206918A48BF
:1027F000816B07910894C06B09908748006C40007A
:102800000B900A960120A84701A800F09EF94FF00E
:10281000010A00E000BF00BF5046D0E67FB500F0DF
:1028200072F90120029A0099FFF7A8FE04460220DF
:10283000039A0199FFF7A2FE0546012C01D0012D54
:1028400001D100F058F97FBD2DE9F84F83460E46BF
:10285000904600200090BBF1010F03D0BBF1020FA6
:102860000FD105E0AFF2173A6C4C6D4D6D4F0BE098
:10287000AFF2153A694C241D694D2D1D694F3F1D5E
:1028800002E00020BDE8F88F00BF3868B04203D0F6
:102890006FF00100286020603E60022E06D0032EFB
:1028A00002D0042E18D100E000BF00BF20682860CD
:1028B000D047206020682968A0EB0109B8F1010F1A
:1028C00002D1B9F1010F05D0B8F1020F03D119F10E
:1028D000010000D1009604E06FF001002860206044
:1028E00000BF00BF0098CDE770B504460025062C58
:1028F00077D2DFE804F003172E455C774FF480525F
:1029000005214948FDF73AFD0020FEF7CEF84FF4C7
:102910000050454918310860C00308600020FEF7E8
:1029200027F975E04FF4805205213F48FDF726FD59
:102930000020FEF7BAF84FF400503B491831086008
:10294000C003086080123949886140113849086025
:102950005EE04FF4805205213348FDF70FFD4FF440
:1029600080503149183108604004086004202F4924
:102970008861C0022E4908600120FEF796F847E002
:102980004FF4805205212848FDF7F8FC0020FEF79F
:102990008CF84FF40050244918310860C0030860D7
:1029A000042022498861C0022149086030E00120EA
:1029B000FFF78AFD0023022205211B48FDF730FDA9
:1029C0004FF0005018491831086040140860042086
:1029D00016498861C002164908600320FEF765F8B1
:1029E00016E013E04FF4805205210F48FDF7C6FCB6
:1029F0000020FFF783FD4FF400500B4918310860A9
:102A0000C003086040000A49086001E0012500BFDA
:102A100000BF284670BD0000540500201C000020A7
:102A2000240000202C00002000040240000002408E
:102A30001808024010B5002807DA0A07140EA04A49
:102A400000F00F031B1FD45403E00A07130E9D4A26
:102A5000135410BD10B59C489C49C86001469B4862
:102A6000C1619B49086000208860C860994800687F
:102A700040F01000974908609748008840F008002F
:102A8000954908800846808A40F0010088820846FF
:102A9000008A20F001000882362000F01F02012188
:102AA00091408E4A430942F8231000BF0321FFF7EB
:102AB000C1FF03211C20FFF7BDFF10BDB0F57A7FD9
:102AC00002D34FF4FA6200E0854A1146854AB2FB10
:102AD000F1F2521E804B1A85814AB2FBF1F2B0FB33
:102AE000F2F2521EDA6200225A621A46928A42F0CA
:102AF00001029A82704710B51C2000F0CCF83620F5
:102B000000F0C9F810BD10B51C2000F0D0F8362038
:102B100000F0CDF86D4A526A0AB9012200E00022A5
:102B200010466B4A1268D168884710BD4FF080414B
:102B3000C863098A21F008014FF0804211821146D2
:102B4000898941F008019181704710B504461C2025
:102B500000F0ADF8362000F0AAF814B32C2221467C
:102B60005A480EF021F85948594908600246526AFD
:102B70000AB9012200E000221046554A1268D168C5
:102B800088475348006800685149486000208860C1
:102B9000C8604E49086AFFF791FF4D494868FFF742
:102BA000C5FF10BD4C48008A20F001004A49088248
:102BB0000846808940F0010088810846008840F07E
:102BC00001000880704710B5404A506A404A1268B8
:102BD000D16888474FF08040808920F008004FF08E
:102BE000804188810846008A20F008000882FFF7AB
:102BF000D9FF10BD10B5354A526A0AB9012200E06A
:102C000000221046324A1268D168884732488089CB
:102C100020F00100304988810846008A20F0010038
:102C200008822B488068401C2949886009688968A7
:102C300088420BD2264840682549096849680844FB
:102C4000234948604868FFF771FF23E02048C068C7
:102C5000401C1F49C8601D49896A884214D21C481B
:102C600000681A49884202D101F1100000E01748BB
:102C700017490860084600680068486000208860BE
:102C80004868FFF753FF05E01C2000F010F83620DD
:102C900000F00DF810BD00F01F0201219140420923
:102CA0004FF0E02303EB8202C2F80011704700F0FE
:102CB0001F02012191400C4A430942F8231070473A
:102CC00018ED00E000E400E0D9170008B00900208A
:102CD000DC090020403802400010004080E200E0A3
:102CE00040420F0000BD010580E100E070B50546DF
:102CF000042600240CE0094800EBC4004168284683
:102D00000DF0FBFE18B1054850F8346002E0641C79
:102D1000042CF0DB00BF304670BD00000C420108FF
:102D200070B504460D465148006840F003004F4915
:102D30000860002301220F214D48FDF771FB00239D
:102D4000012203214B48FDF76BFB002301220B21DD
:102D50004848FDF765FB45481030006840F0010029
:102D60004249103108604FF0FF300906C86208463A
:102D7000008B40F201110843890708830320088172
:102D80002CB90846008C20F00200088407E04FF0C0
:102D90008040008C40F002004FF080410884002009
:102DA0004FF08041C8630846808B20F07000888314
:102DB0000846808B40F0100088830846008C20F481
:102DC000805008840846808B40F4807088830846D1
:102DD000808B20F4007088830846008C20F400501B
:102DE00008842DB90846008C20F40040088407E0D0
:102DF0004FF08040008C40F400404FF08041088448
:102E00004FF08040808B20F470404FF080418883E9
:102E10000846808B20F4406088830846008C40F48C
:102E2000805008840846008840F00100088070BD8A
:102E30004FF08040406A70474FF08041098821F090
:102E400001014FF08042118011464862098841F02B
:102E50000101118070474FF08040008AC0F30010DC
:102E600070474FF08040006C7047000030380240DF
:102E700000000240000402402DE9F0470746FE48EA
:102E80008169D0E90E564068012804D002287DD01F
:102E900003287CD1D6E0F8480068012866D1F748BD
:102EA0000068DFF8D4C3CCF81400F4488068CCF88C
:102EB0002000F248C068CCF81C00F0484068DFF8F9
:102EC000BCC3DCF800C0A0EB0C00DFF8ACC3CCF84E
:102ED000100060460069002811DD604600694FEA75
:102EE000E07C4FEA4C4C4CEAD03C4004DFF888834D
:102EF000C8E90C0C0020C446CCF8080017E0DE48F6
:102F000000694FF00009C846D0EB090968EBE07092
:102F10004FEA404040EAD9304FEA494CDFF8588345
:102F2000C8E90CC04FF00100C446CCF808004FF0CF
:102F30000000DFF844C3CCF818008446DFF838837B
:102F4000C8F828C0C8F82CC0C8F83800C8F83C0039
:102F5000C446CCF80C004046006908B1022000E0ED
:102F60000120DFF814C3CCF8000064E0C3484068D7
:102F7000DFF804C3DCF814C0A0EB0C00DFF8F8C2E3
:102F8000CCF8100060468068012801E054E05FE062
:102F90000FD1604600694FF00009C846D0EB09091F
:102FA00068EBE0704FEA404040EAD9334FEA4942CB
:102FB00008E0B14800694FEAE07C4FEA4C4C4CEA2B
:102FC000D0334204AC48D0E90E80DFF8ACC2DCF864
:102FD00018C04FEAEC7918EB0C0C40EB0900DFF855
:102FE0009892D9E90A89B2EB080A63EB0908BCEBAD
:102FF0000A0C70EB080016DA9F48C0E90C239F48C2
:10300000C068DFF874C2CCF81C0060468069DCF848
:103010001CC0604501DA022000E04020DFF858C201
:10302000CCF8000007E00120DFF84CC2CCF80C001F
:103030001020CCF800000BE01020DFF83CC2CCF8E8
:10304000000005E02020DFF830C2CCF8000000BF0F
:1030500000BF8948006810287ED006DC022809D00D
:1030600004283CD0082839D13AE0202875D04028DF
:10307000F9D15FE080488069DFF8FCC1DCF820C04E
:103080006044DFF8F4C1CCF8180060468069DCF8D1
:103090001CC0604510DD002902DD7748816105E034
:1030A0007548C069DFF8D0C1CCF818000420DFF8FB
:1030B000C8C1CCF8000011E06F48D0E90E90DFF8ED
:1030C000B8C1DCF818C08C444FEAEC7819EB0C0C52
:1030D00040EB0800DFF8A081C8E90EC088E087E077
:1030E00065488069DFF890C1DCF820C0A0EB0C00D7
:1030F000DFF884C1CCF8180060468069002806DA41
:103100000020CCF818000120CCF8000011E05A484B
:10311000D0E90E90DFF860C1DCF818C08C444FEAAB
:10312000EC78B9EB0C0C60EB0800DFF84C81C8E9D7
:103130000EC05DE050488069DFF83CC1DCF820C07B
:10314000A0EB0C00DFF830C1CCF8180060468069B5
:10315000DCF81CC0604501E019E032E007DA4648BF
:1031600081610420DFF810C1CCF800000EE0424875
:10317000D0E90E9C806908444FEAE078B9EB000082
:103180006CEB080CDFF8F080C8E90E0C30E03A4830
:10319000D0E90A90DFF8E0C0DCF818C04FEAEC781C
:1031A00019EB0C0C40EB0800DFF8CC90D9E90E8944
:1031B0001CEB080C40EB0900DFF8BC80C8E90CC030
:1031C00016E00020DFF8B0C0CCF8180000216046FF
:1031D000D0E90AC0DFF8A080C8E90CC08C46C8F866
:1031E00038C0C8F83CC00120C446CCF8000000BF7D
:1031F00000BF2148D0E90A90DFF87CC0DCF818C095
:103200008C444FEAEC7819EB0C0C40EB0800DFF82B
:103210006880C8E90AC01948006910B14046406892
:1032200048B31548D0E90C90DFF84CC0DCE90A8CB3
:10323000B9EB080860EB0C00DFF83CC0DCE90E9C41
:10324000B8EB090870EB0C001CDA0B480068012889
:1032500018D009488161D0E90CC0BCEB050C60EBCB
:103260000600DFF81480C8E90AC04046C0E90E56DF
:103270000820C44604E005E038000020EC090020E6
:10328000CCF800002B48D0E90AC04FEAC03848EA21
:103290005C4428488068012807D126484069001B03
:1032A000DFF890C0CCF8400006E022484069204496
:1032B000DFF880C0CCF840001E48006C3860002069
:1032C000DFF870C0CCF8040060460068DCF80CC081
:1032D000BCF1010F02D14FF0800C01E04FF0000C67
:1032E00040EA0C00BDE8F08770B5049C124D2860E0
:1032F0006960AA60EB602C6101250E4E756000E0EC
:1033000000BF0C4D6D68012DFAD070BD012803D1AE
:103310000221084A516002E00321064A516000E0A0
:1033200000BF044949680229FAD0024949680329C3
:10333000F6D0704738000020EC09002010B50020BE
:10334000FE490860122000F052FD10BD10B5122099
:1033500000F059FD10BDFA49086170470021016075
:1033600041608160C16041618161C161704770B538
:10337000044620686060F349086880472060D4E90B
:103380000001451AA0682844A060EF4A916862696C
:10339000501901F0E7F96061EB48D0ED040A94EDB3
:1033A000050AB8EE400A20EE800A10EE101A084610
:1033B00010F0FCFCC0F30B00A061208BA18B084433
:1033C000C0F30B00A061284670BD10B50024DD4994
:1033D000486A804708B144F01004DA49086B804716
:1033E00008B144F02004204610BD10B50446122058
:1033F00000F009FDD54800682040D449086012203B
:1034000000F0F5FC10BD2DE9F041CD48456880681D
:1034100020F02407CA48C468CC48006805404FF033
:10342000FF30CA490860C648816BC0690E1AC4489B
:103430004662C548806FB04204DBC348806F40429B
:10344000B04203DD45F0100547F02007BE48B0F953
:103450008000B04207DDBC48B0F980004042B04275
:1034600001DA47F00407B648C06B20F0800001285D
:1034700026D1B548B0F97E00B04215DDB248B0F9AA
:103480007E004042B0420FDAAF48B0F97C00B0494C
:103490000968884205D9AE480068401CAC490860FC
:1034A0000EE047F080070BE00020A9490860A6481D
:1034B000B0F87C0010B127F0800701E047F08007EA
:1034C000A049C86B80479E4880ED170A9D49086C4B
:1034D00080479B4880ED180A40F2011084439848C9
:1034E00090ED190A9B48D0ED040AB4EEE00AF1EE23
:1034F00010FA28DD44F48074914890ED190A95483B
:10350000D0ED040A30EE600A8D48D0ED1B0A30EE93
:10351000200A80ED1B0A90ED1B0A8E48D0ED050AAB
:10352000B4EEE00AF1EE10FA7EDD44F4007445F4E6
:103530008055834890ED1C0ADFED870A20EE200AB3
:1035400080ED1C0A70E07E4890ED190A7E48D0EDAF
:103550001B0AB4EEE00AF1EE10FA28DD44F0010493
:10356000774890ED190A7848D0ED1B0A30EE600AD2
:103570007348D0ED1A0A30EE200A80ED1A0A90ED59
:103580001A0A7148D0ED1C0AB4EEE00AF1EE10FA06
:103590004ADD44F0020445F48055694890ED1C0A68
:1035A000DFED6D0A20EE200A80ED1C0A3CE0664843
:1035B00090ED1A0A6248D0ED1C0A70EE600A90ED98
:1035C0001C0A9FED661A01EE200A80ED1C0A90EDA0
:1035D0001B0A6048D0ED070A20EE200A584880ED0B
:1035E0001B0A90ED1B0A5B48D0ED060AB4EEE00A18
:1035F000F1EE10FA01D224F40074514890ED1A0A49
:103600005448D0ED080A20EE200A4D4880ED1A0AF1
:1036100090ED1A0A4C48D0ED1D0AB4EEE00AF1EE26
:1036200010FA01D224F002044649886A804720B18A
:1036300045F020054349C86A80474249486B8047A6
:1036400020B145F040053F49886B80473D49C86C33
:10365000804750B145F008053A49086D8047384920
:10366000096A08443649C1F8E40035484560876076
:10367000C460BDE8F0813249C9690A183049CA619D
:10368000096A0A182E490A62704770B50246344C1E
:103690002468641A04F30F0400EE904A304C216051
:1036A000541A04F30F00284CD4ED0E3A03EE100A1E
:1036B000B8EEC33A23EE833AB0EE432A1F4C246897
:1036C00004441E4D2C60204C646D2D68AC4204DA1D
:1036D0001D4C646D194D2C600BE01B4C646D6442F5
:1036E000164D2D68AC4204DD174C646D6442134DD9
:1036F0002C60124C246804F31704104D2C60124CFB
:10370000D4ED103A2C46246803EE104AB8EEC33AC2
:1037100023EE831A134C25682468641C114E346010
:10372000094CB4F95040A54224DB002435462C60F6
:103730000D4C2468031B03F30F0417E080000020E6
:10374000000A0020700B0020EC0A002084000020FA
:1037500088000020C40B00203BDF7F3F0014033AA9
:10376000980000208C00002094000020FB4D2C606D
:10377000FB4C2060F94C2468012C03D0F74C2468E2
:10378000641C02D19FEDF73A09E0F74CD4ED0F3AF3
:10379000F24C94ED003AB8EEC33A23EE833AF0EEE1
:1037A000432AF14C94ED123AF8EEE03A63EE231A14
:1037B00032EE013A33EE223A33EE213AD4ED113AA9
:1037C00023EE230AB7EE003AB4EEC30AF1EE10FA84
:1037D00004DDB7EE003AB0EE430A0AE0BFEE003A6D
:1037E000B4EEC30AF1EE10FA03D2BFEE003AB0EE27
:1037F000430A70BD2DE9F0412DED0E8B8CB0804653
:103800000D461446F0EE40AA1F46D84800EB85004E
:1038100090ED000AF0EE409AD54800EB850090ED5F
:10382000000AB0EE40BA94ED000AB0EE40AA94ED62
:10383000000AD4ED010AB0EE001A01EE200ADFED15
:10384000CD0A20EE200AF0EE408A2AEE0A0A08EE9F
:10385000A80A8DED080A9DED080AB0EEC00ADFED5A
:10386000C60AB4EEE00AF1EE10FA01DD012000E034
:10387000002006460B962AEE0B0AB0EE40DA08EE60
:10388000A9DA28EE8B0AF0EE40CA4AEE69CA7AEE4F
:10389000ECDA4EB9B448D0ED170AB84890ED000AFA
:1038A0000DEEA00A80ED000AAF4890ED180AB3486B
:1038B000D0ED000AB4EEE00AF1EE10FA06D2AA4802
:1038C00090ED180AAD4880ED000A14E0A64890ED8E
:1038D000180AB1EE400AA948D0ED000AB4EEE00A99
:1038E000F1EE10FA07DDA04890ED180AB1EE400A9B
:1038F000A24880ED000A9C48D0ED160A9F4890ED42
:10390000000A0DEEA00A9848D0ED190A00EEAA0AA6
:10391000B0EE409A9FED930A70EE4DBA46B9D0EDE5
:10392000170A974890ED000A0BEEA00A80ED000AF6
:103930008D4890ED180A9248D0ED000AB4EEE00AE6
:10394000F1EE10FA06D2884890ED180A8C4880ED06
:10395000000A14E0844890ED180AB1EE400A884845
:10396000D0ED000AB4EEE00AF1EE10FA07DD7E4871
:1039700090ED180AB1EE400A814880ED000A7A48BD
:10398000D0ED160A7E4890ED000AB0EE408A0BEEAC
:10399000A08A012F0ED0B0EE6A9A9FED720AB0EEA7
:1039A000408A9FED700A80ED000A9FED6E0A734811
:1039B00080ED000A29EE090A08EE080AB1EEC0CA35
:1039C000704890ED1C0AB4EECC0AF1EE10FA04D265
:1039D000D0ED1C0A80EE8C0A01E0B7EE000AB0EED2
:1039E00040EA28EE0E0AB0EE408A29EE0E0AB0EE4A
:1039F000409ACDED0A9A8DED01DACDED02CA8DED3A
:103A0000038A8DED049A29EE090A08EE080A8DED65
:103A1000090A28EE0B0A09EE690AB0EE40AA28EE60
:103A2000290A09EE0B0AF0EE408ACDED058ABEEEBA
:103A3000000A28EE800ADFED540A00EE8A0A8DEDB6
:103A4000060ABEEE000A28EE800ADFED4F0A00EEFD
:103A5000CA0A8DED070A2C2201A940460DF0A4F8F0
:103A60000CB0BDEC0E8BBDE8F0810022D0ED001A49
:103A7000F5EEC01AF1EE10FA00DB0122D0ED011ACA
:103A8000F5EEC01AF1EE10FA00DB921CD0ED021A2E
:103A9000F5EEC01AF1EE10FA00DB121D072A5CD217
:103AA000DFE802F0CB04213E7491AE00D0ED021AA3
:103AB000B7EE002A71EE821A90ED012A71EE821A99
:103AC000B6EE002A61EE820AD0ED021A30EEE10A6B
:103AD000D0ED011A30EE611A81ED000A81ED011A74
:103AE000C1ED020AB6E0D0ED001AB7EE002A71EE81
:103AF000821A90ED022A71EE821AB6EE002A61EE69
:103B0000820AD0ED001A30EEE10AD0ED021A30EE52
:103B1000611A81ED001AC1ED010A81ED020A99E0F6
:103B2000D0ED001AB7EE002A72EE611A90ED012A6C
:103B300071EEC21AB6EE002A61EE820AD0ED001ACA
:103B400031EEA00AD0ED011A31EE801A81ED001A93
:103B500081ED010AC1ED020A7CE06EE090000020D8
:103B60009400002000000000EC0A0020F40B00206C
:103B7000F44B00203BCD133F6666663F9C0000205F
:103B8000A0000020000A0020D7B35D3FD0ED011A4D
:103B9000B7EE002A71EE821A90ED002A71EE821AB9
:103BA000B6EE002A61EE820AD0ED011A30EEE10A8B
:103BB000D0ED001A30EE611AC1ED000A81ED010A64
:103BC00081ED021A46E0D0ED021AB7EE002A72EE3D
:103BD000611A90ED002A71EEC21AB6EE002A61EE6B
:103BE000820AD0ED021A31EEA00AD0ED001A31EEB1
:103BF000801AC1ED000A81ED011A81ED020A29E067
:103C0000D0ED011AB7EE002A72EE611A90ED022A89
:103C100071EEC21AB6EE002A61EE820AD0ED011AE8
:103C200031EEA00AD0ED021A31EE801A81ED000AC1
:103C3000C1ED010A81ED021A0CE0F6EE001AC1EDA9
:103C4000001AF6EE001AC1ED011AF6EE001AC1EDE7
:103C5000021A00BF00BF704700B58BB020206E492C
:103C600008606E48C1696E488847FFF7AEFB6D4932
:103C7000096848406A494439086001F11400FFF7B7
:103C800076FB6749443948630846D0F8E80010F0ED
:103C9000010F02D0FFF7B7FB0FE061480C38FFF7C8
:103CA000EBF85F494439C8630A46916BD069FFF766
:103CB000ECFC5B48443880ED250A594844380069DB
:103CC000082851D2DFE800F05104502A5017503D27
:103CD00053484438D0ED100AB0EE600A0023504A31
:103CE000C16A6846FFF786FD2C2269464C4854306D
:103CF0000CF05AFF4DE04A484438D0ED100AB0EEBF
:103D0000600A0123464AC16A6846FFF773FD2C2208
:103D10006946434854300CF047FF3AE04048443885
:103D2000D0ED250AB0EE600A00233D4AC16A68461C
:103D3000FFF760FD2C226946394854300CF034FFFF
:103D400027E037484438D0ED250AB0EE600A012359
:103D5000334AC16A6846FFF74DFD2C226946304858
:103D600054300CF021FF14E000BF2D4844380023EC
:103D70001FED840A2A4AC16A6846FFF73BFD2C22E0
:103D80006946274854300CF00FFF00202649086090
:103D900000BF00BF22490C3101F15800FFF765FE5A
:103DA0001E4801691E480C3088471D484438D0F829
:103DB000E800401C1A494439C1F8E800084690ED73
:103DC0002D0AD0ED190A70EE600A90ED190A9FEDE8
:103DD000171A01EE200A80ED190AD431C43000F020
:103DE00072FF4FF400100C4908600BB000BD00F0EA
:103DF0001F020121914042094FF0E02303EB8202B0
:103E0000C2F80011704700F01F0201219140084ADA
:103E1000430942F82310704718040240700B002039
:103E2000440A0020EC0A0020800000200AD7233C2E
:103E300080E100E010B52DED028B00242EE000EEB5
:103E4000104AB8EEC00ADFEDFE0A20EE200ADFEDD0
:103E5000FD0A80EE201AB0EE418AB0EE480A0FF05B
:103E600097F9F94800EB840080ED000A00EE104A53
:103E7000B8EEC00ADFEDF20A20EE200ADFEDF10A0B
:103E800080EE201AB0EE418AB0EE480A0EF0F8FF3C
:103E9000EE4800EB840080ED000A641CB4F5805FFE
:103EA000CDDBBDEC028B10BD10B5FFF7C3FFE848BA
:103EB000E8490860E8484860E848C864E848086598
:103EC000E8488860E848C860E8480861E848486110
:103ED000E8488861E848C861E8480862E8484862FC
:103EE000E8488862E848C862E8480863E8484863E8
:103EF000E8488863E848C863E8480864E8484864D4
:103F0000E848886410BD0020E749C1F8E80048612E
:103F10000021E548C161016281618162C162016382
:103F20000020E1490861086048608860C8609FED32
:103F3000DF0A084680ED100A9FEDDC0A80ED1A0AC0
:103F40009FEDDA0A80ED1B0AD94890ED0B0A08466E
:103F500080ED1C0A0020886348670021D2488167F1
:103F6000C0F88010C1670020CF49C1F88800002147
:103F7000CD48C0F88C10C0F890104430CA49C1F840
:103F8000C400CC494438C0F8C8109FEDCB0A80ED7E
:103F9000330A9FEDC60A80ED340A4830C249C1F8A1
:103FA000D400C4494838C0F8D8109FEDC30A80ED4A
:103FB000370A9FEDBE0A80ED380A70472DE9F041BF
:103FC0002DED0C8B054605F14404AE1C4FF00108A5
:103FD0009FEDBA0AB64880ED000AB7EE000A80ED00
:103FE000010A9FEDB70A80ED040A9FEDB60A80ED45
:103FF000090A90ED040AF6EE080A20EE200AD0ED38
:10400000090A20EE200A80ED050A90ED050ADFED91
:10401000AE0A20EE200A80ED060A9FEDAC0A80ED84
:10402000070A9FEDAB0A80ED080A90ED000A20EE2A
:10403000000AD0ED090A80EE201A80ED0A1A9FEDE1
:10404000A50A80ED0B0A9FEDA40A80ED020AB3EEEB
:104050000E0A80ED030A90ED040AA04880ED1B0AC9
:10406000934890ED050ADFED9E0A20EE200A9B485A
:1040700080ED1C0A002D7DD0B4F9360080F03100AF
:10408000964908600846008810F4805F05D1012039
:1040900000F000FD012000F07AFF904A127802F053
:1040A00004018E4A127802F00100FEF739FE94F8FE
:1040B0006A0028B98948006840F4005087490860C0
:1040C00094F86B0028B98548006840F48040834923
:1040D00008608249097811F0100F01D0012100E039
:1040E00002210846FEF782F97C49097811F0200F79
:1040F00001D0012100E002210846FEF7AEF994F854
:104100006800C0F3011030B1012807D0022808D0A0
:1041100003280CD108E04FF0010808E04FF04008F8
:1041200005E04FF0800802E04FF4807800BF00BF48
:10413000B4F95A0000FB08F06849C86094F86800B8
:1041400010F0010F1AD0D6F83E106448816090ED4F
:10415000020AF8EE400A90ED030AB8EE400A80EE3B
:10416000801AB6EE000A31EE000ABDEEC00A80EDFC
:10417000010A00E058E20021C16017E0D6F81E10E5
:104180005648C068B1FBF0F050B1D6F81E10534845
:1041900081608168C068B1FBF0F05049486005E07B
:1041A0004E48C168816001204C4948604B4988688D
:1041B0000FF046FC41EC100BB0EE40CAF0EE60CAC6
:1041C0009FED480B53EC102B51EC1C0B0FF088FCAF
:1041D00041EC100BB0EE40AAF0EE60AA3F494868EF
:1041E0000FF02EFC41EC100BB0EE40DAF0EE60DA8E
:1041F0009FED3C0B53EC102B51EC1D0B0FF070FCA2
:1042000041EC100BB0EE40CAF0EE60CA9FED370BE8
:1042100053EC102B51EC1C0B0FF062FC41EC100B1B
:10422000B0EE40BAF0EE60BA53EC1A2B51EC1B0B17
:104230000FF072FA41EC100BB0EE409A5AE0000019
:10424000DB0FC94000008045F40B0020F44B002038
:10425000312E0008700B0020392E0008572E000860
:10426000632E0008C7230008BD230008AD4F0008D7
:104270004D4F0008834F0008B34A0008094B00085F
:10428000D12300083D24000849240008DF2300084A
:10429000AB240008B7240008C54B0008DB4B00081E
:1042A000254C00082F4C0008000A002000000000E8
:1042B000C40B0020AD4C000800F0FF441E79844080
:1042C000A1F6F03E009618466666663F72F97F3F9B
:1042D00058FF7F3FCDCC6C3FCDCC8C40EC0A00200A
:1042E0000000C842000000000000F03F0000000095
:1042F0000000B040F0EE609A51EC190B0FF0C6F9D7
:10430000FE490861B4F9220000EE100AB8EEC00AB6
:10431000DFEDFB0A80EE201A084680ED0E1AB4F994
:10432000240000EE100AB8EEC00ADFEDF50A80EEB8
:10433000201A084680ED0F1AB4F9260000EE100A84
:10434000B8EEC00ADFEDEF0A80EE201A084680EDD5
:10435000101A208D00EE100AB8EE400ADFEDEA0ACE
:1043600080EE201A084680ED111AD4F8321041650B
:10437000218EA0F85010B4F92C0000EE100AB8EE0F
:10438000C00ADFEDE20A80EE201ADC4880ED121A46
:10439000B4F92A0000EE100AB8EEC00ADFEDDC0A1C
:1043A00080EE201AD54880ED131A21698167B4F98F
:1043B000560000EE100AB8EEC00ADFEDD60A20EE75
:1043C000200AB0EE408A28EE080AD348D0ED040A4D
:1043D00020EE200AC94880ED1B0AB4F9580000EE0F
:1043E000100AB8EEC00ADFEDCD0A20EE200AB0EECA
:1043F000408AC24890ED1B0A20EE080AC648D0ED5C
:10440000090A20EE200ABD4880ED1C0A90ED1C0A26
:10441000DFEDC30A20EE200A80ED1D0ABE4890EDB4
:104420000B0AB64880ED1A0A208FB0BB608FA0BB84
:10443000B4F9440000EE100AB8EEC00ADFEDB90A84
:1044400080EE201AAD4880ED161AB4F9460000EE51
:10445000100AB8EEC00ADFEDB40A80EE201AA748B1
:1044600080ED171AB4F9480000EE100AB8EEC00A41
:10447000DFEDAE0A80EE201AA04880ED181AB4F9DC
:104480004C0000EE100AB8EEC00ADFED9D0A80EE87
:10449000201A9A4880ED191A34E0FFE7B4F9380081
:1044A00000EE100AB8EEC00ADFED9E0A80EE201A78
:1044B000924880ED161AB4F93A0000EE100AB8EEF0
:1044C000C00ADFED990A80EE201A8C4880ED171A99
:1044D000B4F93C0000EE100AB8EEC00ADFED930A12
:1044E00080EE201A854880ED181AB4F94C0000EED1
:1044F000100AB8EEC00ADFED820A80EE201A7F486B
:1045000080ED191AA08A00B27C49A1F87C00E08AEB
:1045100001B27A48A0F87E106168016321684163A6
:1045200094F86800C0F3410008B9022100E00121BD
:1045300072484161B4F95E0000EE100AB8EEC00A9C
:10454000DFED710A80EE201A6C4880ED061AB4F98E
:104550005C0080F3500169488183B4F9660000EE85
:10456000100AB8EEC00ADFED680A80EE201A634830
:1045700080ED081AB4F9620080F350015F4881842D
:104580009FED6B0A80ED0A0A6A48FEF7AFFB07460B
:10459000380006D001282BD002282AD0032842D187
:1045A00028E0564890ED060ADFED630AB4EEE00A13
:1045B000F1EE10FA03DD9FED600A80ED060A564821
:1045C00090ED040ADFED5D0A20EE200A4B4880EDF5
:1045D0001B0A90ED1B0ADFED5A0A20EE200A4E4816
:1045E000D0ED090A20EE200A444880ED1C0A1AE0AA
:1045F00000BF00BF484890ED040ADFED520A20EEEC
:10460000200A3E4880ED1B0A90ED1B0ADFED4C0AA4
:1046100020EE200A4048D0ED090A20EE200A374853
:1046200080ED1C0A00BF68E00221344841619FED23
:104630003C0A80ED060A4FF4FA618183006820F09D
:1046400001002E490860012048604FF47A612B4830
:104650008160006820F00100284908600846006871
:1046600040F030000860072048604FF4FA612348AA
:1046700081600246127802F004010246127802F0CC
:104680000100FEF74DFB1D4880681C494968B0FBDE
:10469000F1F11A48C160806818494968B0FBF1F22D
:1046A00001FB120010B100211448C1609FED260AE1
:1046B000124880ED0E0A9FED250A80ED0F0A9FED4E
:1046C000240A80ED100A234941653221A0F85010D8
:1046D0006421016349F640414163B6EE000A80ED72
:1046E000160A9FED1D0A80ED170AB7EE000A80ED4D
:1046F000180A9FED160A80ED190A2FE0EC0A002037
:10470000000000470000004B000080470000004808
:104710000000804800010038C40B00209001483B95
:10472000CDCCCC3DE9260943E926094400579B47F7
:10473000A38B2E3FE00700209A99193E47E1FA3EED
:104740000000704217B7D13C0000C83A00000000DA
:104750000000003820A1070017B7D138BDEC0C8B42
:10476000BDE8F081024692FBF1F301FB1323181E12
:1047700000DA08447047000010B5FD480068FD49A4
:104780000843FB490860FC48006840F63F71084355
:10479000F9490860F8480C30006840F63F718843DA
:1047A000F5490C310860F2481430006840F4E060CC
:1047B000EF4914310860F148006840F48030F04956
:1047C000C1F804030846D0F8040320F40030C1F80F
:1047D00004030846D0F8040340F01100C1F80403B4
:1047E0000846806820F4401088600846806840F4DD
:1047F000801088600846806820F470208860084631
:10480000806840F4602088600846806840F201318A
:1048100040EA0100DA4988604FF00000C860086192
:104820000846C06A20F47000C8620846C06A40F4B6
:104830008010C8624FF4F7704863D248006820F0D7
:104840000100D049086000E000BFCE48006810F0C9
:10485000010FF9D1CB48006820F06060C9490860B9
:104860000846006840F450600860C5484C30C549AF
:1048700008310860C448091D08600220C149091DAB
:104880000860081F006840F00100091F0860BC486C
:10489000806820F04050BA4988600846806840F03F
:1048A000805088600846806820F070608860084604
:1048B000806840F0606088600020886240F6FF7089
:1048C00048620846406840F00F004860084640686B
:1048D000AE490843AA4948600846006820F0010034
:1048E00008600846806B20F4700088630846806B7F
:1048F00088630846806B40F4A020886308464068BF
:1049000040F4807048600846406820F0407048607D
:10491000C81448619E48006820F44010C1F808019E
:104920000846D0F8080120F47020C1F808010846B4
:10493000D0F8080140F00100954908604FF00000F0
:1049400001F1040108608E49C1F810010846D0F851
:104950002C0120F47000C1F82C010846D0F8380171
:1049600020F47000C1F838018A480068C1F83801A5
:104970000846D0F8380140F4B020864908604FF46A
:1049800000607F49C1F814010846D0F8040120F006
:104990004070C1F804010846D0F8080220F4401025
:1049A000C1F808020846D0F8080220F47020C1F8C7
:1049B00008020846D0F8080240F001007649086075
:1049C0004FF0000001F1040108606D49C1F81002C8
:1049D0000846D0F82C0220F47000C1F82C020846DA
:1049E000D0F8380220F47000C1F838026B48006833
:1049F000C1F838020846D0F8380240F4C0206749B0
:104A000008604FF400605E49C1F814020846D0F80F
:104A1000040220F04070C1F804020846006820F04B
:104A2000040008600846406840F0800048604FF08D
:104A300012004FF00101002807DA0A07140E584A45
:104A400000F00F031B1FD45403E00A07130E554A4E
:104A5000135400BF122000F0F1F810BD704710B5DC
:104A600004461220012181404F4A430942F8231095
:104A700000BF4E480460122000F0E0F810BD10B5F1
:104A80003F48006820F004003D490860474800683E
:104A9000804710BD10B504462CB118224449454842
:104AA0000CF082F804E01822434942480CF07CF8EC
:104AB00010BD40490968096809B200EE101AB8EE45
:104AC000C00ADFED3E0A20EE200A80ED000A3949D7
:104AD0004968096809B200EE101AB8EEC00ADFEDA5
:104AE000370A20EE200A80ED010A324989680968F8
:104AF00009B200EE101AB8EEC00ADFED300A20EE5F
:104B0000200A80ED020A704710B52DED040B9DEDD3
:104B1000000ADFED2B0A20EE200A10EE101A0846DC
:104B20000FF03DF980F30C002249C96808609DED43
:104B3000010ADFED230A20EE200A10EE101A0846C3
:104B40000FF02DF980F30C011A48006901609DED0A
:104B5000020ADFED1B0A20EE200A10EE101A0846AA
:104B60000FF01DF980F30C011248406901601FBD70
:104B70003038024004004000000802400423014095
:104B80000020014070640240C0000020000280004C
:104B9000082101403821014008220140382201400B
:104BA00018ED00E000E400E080E100E0A400002057
:104BB0004C420108A8000020344201080000003ADD
:104BC00000F07F452348008800EE100AB8EE400A46
:104BD000DFED210A20EE200A70471E48408800EED3
:104BE000100AB8EE400ADFED1C0A20EE200A7047DA
:104BF00010B52DED028BB0EE408A1FED0F0A28EEA6
:104C0000000A10EE101A08460FF0C9F880F30C00E5
:104C1000124948620846006820F001000860BDECB7
:104C2000028B10BD0D48006800F0010070470B4872
:104C3000006820F0010009490860704700F01F0279
:104C40000121914042094FF0E02303EB8202C2F8B8
:104C500000117047C0000020000080390020014092
:104C60002D48006840F001002B4908602A481030A8
:104C7000006840F00050284910310860274800685B
:104C800040F47060254908600846C06820F47060F0
:104C9000C8602348006840F001102149086070474F
:104CA00040EA01421E4B20331A60704790ED000A23
:104CB0007047D0ED000AB1EEE00A704790ED000AAF
:104CC000B8EEC00A70472DE9F04104460D46D4E91C
:104CD00000018847D4ED020A94ED031A41EE000A60
:104CE000BDEEE00A10EE100A80F30C06D5E90001D3
:104CF0008847D5ED020A95ED031A41EE000ABDEE94
:104D0000E00A10EE100A80F30C0746EA0740044957
:104D100020310860BDE8F0813038024000000240D8
:104D20000074004010B5DB48006840F00400D94929
:104D30000860002303220621D748FBF771FB0023FC
:104D400003220721D448FBF76BFB00230322082131
:104D5000D148FBF765FB002303220921CE48FBF76E
:104D60005FFBCC481430006840F00200C9491431A0
:104D70000860CA48008840F00200C8490880002046
:104D8000C6492831088040F66600C54908800846B3
:104D9000008800EE100AB8EE400AC24880ED000A12
:104DA00040F66500BD492C310860BD49088800EB1C
:104DB000D0714910B94A34321160B949088800EB02
:104DC000D0714910121D1160B549088800EBD071EF
:104DD0004910121D1160B1481830008840F0600081
:104DE000AE49183108800846008840F00800088065
:104DF000AA482030008840F00500A84920310880EA
:104E0000A6481830008840F4C040A44918310880F2
:104E10000846008840F400600880A04820300088E0
:104E200040F050009D4920310880081F008840F064
:104E30006000091F08800846008840F008000880CC
:104E4000081D008840F4A060091D0880081F008824
:104E500040F4C040091F0880081D008840F48050BD
:104E6000091D08808E4800881438111D0860081D2F
:104E7000008840F40040091D088000208749303137
:104E800008808648001D008820F0700040F0200057
:104E90008249091D0880081F008840F06000091F32
:104EA00008807E481430008840F001007B491431AE
:104EB00008807A48008840F0010078490880084658
:104EC000008820F00200088000E000BF73480088DE
:104ED00010F0100FF9D001207049303108806F4870
:104EE0000C30008840F480706C490C310880002040
:104EF0006A49483108806748006840F48000654985
:104F000008606948006820F001006749086000E017
:104F100000BF6548006810F0010FF9D162480068D1
:104F200040F06060604908600846006820F4D8607E
:104F300008605A4824305C49083108605B48091D04
:104F4000086000205849091D086010BD56490968CD
:104F500021F00101544A116000E000BF5249096884
:104F600011F0010FF9D15049091D0860C9144E4ACA
:104F7000203A11604C49096841F001014A4A116028
:104F8000704749482838006800F40060704730B125
:104F900042493831464A1160091F516005E03F49D6
:104FA0003431434A1160091D5160704710B5044601
:104FB00094ED000A3B48D0ED000A20EE200A10EEE6
:104FC000101A08460EF0F2FE39490968086094ED9F
:104FD000010A3448D0ED000A20EE200A10EE101A23
:104FE00008460EF0E3FE32494968086094ED020A73
:104FF0002C48D0ED000A20EE200A10EE101A0846C8
:105000000EF0D4FE2A498968086010BD10B52DED58
:10501000028BB0EE408AB5EEC08AF1EE10FA1BD2D8
:105020001E482030008840F400501C492031088080
:105030001B48008800EE100AB8EE400A28EE000A6D
:1050400010EE101A08460EF0AAFE15490988084409
:105050001249403108601AE010482030008820F4DE
:1050600000500E49203108800D48008800EE100ADB
:10507000B8EE400A28EE000A10EE101A08460EF0AC
:105080008EFE07490988081A044940310860BDECC2
:10509000028B10BD3038024000080240000401407D
:1050A000C4000020C800002028640240D80000206E
:1050B000CC00002010B52DED068BB0EE408AF0EE4E
:1050C000608A9FEDFE0A28EE000ADFEDFD0A80EE01
:1050D000201AB0EE419A9FEDF90A28EE800ADFED22
:1050E000F80A80EE201AF0EE419A79EE690AB0EEE5
:1050F000600A0DF0C5FEB0EE40AA79EE690AB0EE86
:10510000600A0EF045F8F0EE40AAF0EE4A0A0DF003
:1051100093FDDFEDEB0A60EE200A9FEDE81A80EECA
:10512000810ABDEC068B10BD70B505460C461646CF
:10513000E4480068072851D2DFE800F0040C141C92
:105140002C3449002DB90120DE4908600020DE49D9
:10515000086043E0A0B2DD4A516988470220D9497E
:1051600008603BE0D9498869804710B10320D549E0
:10517000086033E0A0B2D54A51698847D448FEF7A9
:10518000F6F8D3481438C069D24908600420CD49E4
:10519000086023E0CD498869804710B10520C949DE
:1051A00008601BE0CA48FEF7E2F8C9491439C9692A
:1051B000C84A1268501A01D4014600E04142B14287
:1051C00001D2062100E00321BE4A116006E0012061
:1051D000BD4908600020BB49086000BF00BFBA4855
:1051E000006870BD0EB5F0EE401A062840D2DFE828
:1051F00000F0030C17202B349FEDB70A8DED000A49
:10520000CDED011ACDED021A32E09FEDB30A8DED1E
:10521000000A9FEDB10A8DED010ACDED021A27E0DB
:10522000CDED001A9FEDAC0A8DED010ACDED021A0D
:105230001EE0CDED001A9FEDA80A8DED010A9FED4D
:10524000A60A8DED020A13E0CDED001ACDED011A8C
:105250009FEDA10A8DED020A0AE09FED9F0A8DEDF8
:10526000000ACDED011A9FED9C0A8DED020A00BFE8
:1052700000BF9DED000ADDED010A9DED021A0EBD95
:1052800000B52DED028B9FB09048406C099080478F
:10529000A8B18E4880680990804700218C48143856
:1052A000816701208A49143948671E2188481438CB
:1052B000C1670121C0F8801088A009F041FB844833
:1052C0001438406FCB287DD007DC68B101287AD034
:1052D000C9285FD0CA285CD17AE0CC2874D0CD2808
:1052E00073D0CE28F7D1A7E279481438806F01280F
:1052F0004FD10021764814388167C0F88010FEF73E
:1053000025F87D487D4B0ECB0EC070480069099092
:105310007948099988477A48C06840F6B831B0FBA7
:10532000F1F0401C77490860754890ED080A76480E
:1053300080ED000A7248808C7449088072480068C9
:105340000EF002FD41EC100B8DED080B6F4800884C
:1053500000909DED080B53EC102B6D4809F0F0FA0E
:105360006CA009F0EDFA644873490860001D7349A8
:105370000860001D724908606148808B099061488F
:10538000026800200999FFF7CFFEC9215048143860
:105390004167FDE35A48808B09905A480268012012
:1053A0000999FFF7C1FE012811D15548808B09905A
:1053B0005448026863A0099909F0C2FACA20444916
:1053C000143903E027E1FCE3DBE1FBE34867E0E7B6
:1053D00000203F49143908613C48406A09908047E1
:1053E00008B9012000E0002045490968012222EAAD
:1053F000111148400C903548006B0990804708B95E
:10540000012000E000203E490968012222EA5111F2
:1054100048400B900C9898B13948008810F4005F10
:105420000ED157A009F08CFA1E2129481438C16703
:105430000221C0F880100120254914394867E9E0AD
:105440000B9898B12E48008810F4804F0ED15CA0C4
:1054500009F076FA1E211E481438C1670221C0F8EF
:10546000801001201A4914394867D3E01748C06AF0
:10547000099080471548806B099080471448FDF7D4
:105480006DFF124840680990002009998847002064
:105490005B4908605B4908600D48FDF768FF0C48F0
:1054A0001438C0695849086009481438C06A48600F
:1054B000012156480160CB200549A9E0DA0FC94017
:1054C0000000B443E0000020DC000020700B00204E
:1054D000140A0020E4000020000000000D0A4572BC
:1054E000726F723A20627573206F7665726375729F
:1054F00072656E7400000000F48B002064420108A5
:10550000EC0A0020E8000020000100201C0100201F
:10551000704201080D0A57616974696E6720666FF1
:10552000722073746174696F6E617279206D6F742B
:105530006F722E2E2E000000FC000020F4000020D0
:10554000F80000200D0A4D6F746F7220737461743F
:10555000696F6E6172793A20666F722025642063EC
:1055600079636C65732045636E44656C7461207764
:105570006173206C657373207468616E202564000C
:105580000D0A466F7277617264206C696D697420D0
:10559000737769746368206163746976652C207021
:1055A000756C736520706861736520696E6974201D
:1055B00063616E6E6F7420626520757365642E0082
:1055C0000D0A52657665727365206C696D69742089
:1055D000737769746368206163746976652C2070E1
:1055E000756C736520706861736520696E697420DD
:1055F00063616E6E6F7420626520757365642E0042
:10560000EC000020F0000020008C00201801002099
:1056100014394867BDE6FE4890ED000AF6EE000A30
:1056200030EEC00AFB48006880ED000AB6EE000AC2
:10563000F948006880ED000AB6EE000AF7480068F5
:1056400080ED000AF64800690990F64809998847F4
:10565000F34840690990F44800880999884700E0B8
:1056600000BFEF4880690990804728B9EC48406C3A
:10567000099080470028F3D0EC48FDF778FEEB480E
:105680001438C069EA49096801EB4101E94A42F866
:105690002100E6481438C06AE549096801EB410178
:1056A00002EB81014860E2480068401CE049086064
:1056B000D74890ED000AF6EE000A30EE200AD548F1
:1056C000006880ED000AD64800690990D54809991C
:1056D0008847D34840690990D3480088099988478A
:1056E00000E000BFCE4880690990804728B9CC48C7
:1056F000406C099080470028F3D0CC48FDF737FE76
:10570000CA481438C069CA49096801EB4101C94A4D
:1057100042F82100C5481438C06AC549096801EB40
:10572000410102EB81014860C1480068401CC0494A
:105730000860B6EE000AB748006880ED000AB84875
:1057400000690990B74809998847B548406C0990A5
:10575000804720B9CC20B5491439486710E0B048DB
:105760008068099080470121B048143841671E21A4
:10577000C1670121C0F88010AFF2A02009F0E0F865
:1057800007E6A4480068A749884209D1081DA14935
:105790000860001FA04908600830A04908601EE0AA
:1057A0009C4801689F48001D814209D1001D99490C
:1057B0000860083898490860001D984908600EE0A4
:1057C0009448016897480830814208D108389149C7
:1057D0000860001D90490860001D904908609048CD
:1057E000806A0990804758B11E2190481438C167DB
:1057F0000221C0F8801001208C49143948671AE052
:105800008748406B0990804758B11E21874814385B
:10581000C1670221C0F8801001208449143948670B
:1058200009E083480068092801D1CE2000E0CB20A0
:105830007E4914394867ACE57D4801687EA009F0CF
:105840007FF800207A4908604DE07948006800EB55
:105850004000784951F8200012907548006800EB2C
:10586000400001EB800090ED010AB8EE400ADFED48
:10587000780A20EE200A8DED0F0A76491298096801
:10588000401A1190744911980968401A68490968CA
:1058900001EB4101674A02EB810188600F980EF02D
:1058A00053FA41EC100B8DED080B6148006800EBDA
:1058B0004000604901EB80008268DDE911108DE84D
:1058C00007009DED080B53EC102B64A009F038F88D
:1058D000604912980860604911980860544800684F
:1058E000401C53490860524800680928ADD351480C
:1058F00090ED170AB8EEC00A8DED160A90ED160A63
:10590000B8EE400ADFED620A20EE200A8DED130AA0
:1059100090ED0B0AB8EEC00A8DED170A90ED0A0A59
:10592000F8EE400A9FED5A1A9FED5A0A10EE810ACE
:105930008DED140A90ED110AB8EEC00A8DED180A2B
:1059400090ED100AF8EE400A9FED511A9FED510AB2
:1059500000EE810A8DED150A9DED130A8DED070A03
:105960009DED070A0DF08CFADDED170A20EE208A76
:105970009DED140A8DED070A9DED070A0DF080FAE2
:10598000F0EE400A9DED161AB0EE480A01EE600AEC
:105990008DED090A9DED140A8DED070A9DED070AAC
:1059A0000DF0F6FBDDED160A20EE208A9DED130AC0
:1059B0008DED070A9DED070A0DF0EAFBF0EE400AB7
:1059C0009DED171AB0EE480A01EE600A8DED080A47
:1059D000DDED090A9DED080A0DF02EF98DED1E0A88
:1059E0009DED140A8DED070A9DED070A0DF048FAAA
:1059F000DDED180A20EE208A9DED150A8DED070ACF
:105A00009DED070A0DF03CFAF0EE400A44E000007C
:105A100000010020FC000020F4000020F80000201D
:105A2000700B0020F48B00201C010020140A0020C1
:105A300018010020008C00200D0A436F6D706C650A
:105A40007465642025642070756C7365733A20005A
:105A50000000B43DEC000020F00000200D0A41746D
:105A600020436F6D416E67203D2025362E3166093B
:105A7000506F73203D202535640956656C203D200C
:105A800025356409416363203D202535640000000D
:105A9000DA0FC93A910A06409DED171AB0EE480A8E
:105AA00001EE600A8DED090A9DED150A8DED070ADC
:105AB0009DED070A0DF06CFBDDED170A20EE208A44
:105AC0009DED140A8DED070A9DED070A0DF060FBB0
:105AD000F0EE400A9DED181AB0EE480A01EE600A99
