:020000040000fa
:080000000004040000000000f0
:020000040000fa
:10080000cf5221000eff21000e01880000000000e1
:100810000c000700e0512400010020000f00070039
:10082000000020000000e000020032000000020092
:1008300000000000c20d0200000000000040da00cd
:100840000000fe00800620000000e00002003200f0
:10085000002020009001880000000600a10288000e
:10086000800078000000eb001a003700e2804000b2
:1008700054a0b4009101ba00e280400054a0b4003a
:100880009102ba00e280400054a0b4000002eb00e4
:10089000472bde00f507b200a6018800602ce100be
:1008a00008003a000049eb000201e80002003900ac
:1008b0003420ec0002f0a0008301e900f9ff3e00c3
:1008c000040037006128e100010032000082eb00e3
:1008d000040007001101ba000200e000e3ff3a0043
:1008e0000000060004d0a300e20f49001c003900fc
:1008f000810278003549ba000201e800020039009f
:100900003420ec0002f0a0008301e9000f00320067
:100910002549ba000201e800020039003420ec0049
:1009200002f0a0008301e900080032000400e000aa
:100930000600320015c9ba000201e80002003900c1
:100940003420ec0002f0a0008301e9008180e8007f
:1009500054a0b4000300e000e2ff3a0000000600eb
:100960009102ba00055978008301e900f7ff3200cf
:10097000c82ade00055978008301e900f3ff320040
:100980000400e000f1ff320011d9ba00eeff370099
:080990000040da000000fe0047
:020000040000fa
:04afe000deff000090
:020000040000fa
:04afe400f000000079
:020000040000fa
:04afe8007fff0000e7
:020000040000fa
:04afec00dbff000087
:020000040000fa
:04aff00039ff000025
:020000040000fa
:04aff400cfff00008b
:020000040000fa
:10000800c8040000c8040000c8040000c8040000b8
:10001800c8040000c8040000c8040000c8040000a8
:10002800c8040000c8040000c8040000c804000098
:10003800c8040000c8040000c8040000004600000e
:10004800c8040000c8040000c8040000804500007f
:100058000045000000470000c8040000c804000074
:10006800c8040000c8040000c8040000c804000058
:10007800c8040000c8040000c8040000c804000048
:10008800c8040000c8040000c8040000c804000038
:10009800c8040000c80400000044000080440000b8
:1000a800c8040000c8040000c8040000c804000018
:1000b800c8040000c8040000c8040000c804000008
:1000c800c8040000c8040000c8040000c8040000f8
:1000d800c8040000c8040000c8040000c8040000e8
:1000e800c8040000c8040000c8040000c8040000d8
:1000f800c8040000c8040000c8040000c8040000c8
:10010800c8040000c8040000c8040000c8040000b7
:10011800c8040000c8040000c8040000c8040000a7
:10012800c8040000c8040000c8040000c804000097
:10013800c8040000c8040000c8040000c804000087
:10014800c8040000c8040000c8040000c804000077
:10015800c8040000c8040000c8040000c804000067
:10016800c8040000c8040000c8040000c804000057
:10017800c8040000c8040000c8040000c804000047
:10018800c8040000c8040000c8040000c804000037
:10019800c8040000c8040000c8040000c804000027
:1001a800c8040000c8040000c8040000c804000017
:1001b800c8040000c8040000c8040000c804000007
:1001c800c8040000c8040000c8040000c8040000f7
:1001d800c8040000c8040000c8040000c8040000e7
:1001e800c8040000c8040000c8040000c8040000d7
:1001f800c8040000c8040000c8040000c8040000c7
:10020800c8040000c8040000c8040000c8040000b6
:10021800c8040000c8040000c8040000c8040000a6
:10022800c8040000c8040000c8040000c804000096
:10023800c8040000c8040000c8040000c804000086
:10024800c8040000c8040000c8040000c804000076
:10025800c8040000c8040000c8040000c804000066
:10026800c8040000c8040000c8040000c804000056
:0c027800c8040000c8040000c804000016
:020000040000fa
:108c0000809fbe000000fa00b180800000818000db
:108c1000808f50002c003a00c180800010818000bd
:108c2000808f500018003a00d180800020818000a1
:108c3000808f500004003a00e150210030c0b300a2
:108c4000804878002f003700d1808000208180008c
:108c5000808f500004003d00d08080000000e800bc
:108c6000d080880003003700d08080000000e90039
:108c7000d0808800d08080008000780060c2200012
:108c8000010878001f003700c1808000108180003b
:108c9000808f500004003d00c08080000000e8008c
:108ca000c080880003003700c08080000000e90019
:108cb000c0808800c08080008000780060c42000f0
:108cc000010878000f003700b1808000008180002b
:108cd000808f500004003d00b08080000000e8005c
:108ce000b080880003003700b08080000000e900f9
:108cf000b0808800b08080008000780060c62000ce
:108d00000108780030818000e10f500002003a0035
:108d1000154ea80001003700154ea90040818000c3
:108d2000e10f500002003a00158ea8000100370044
:108d3000158ea90050818000e10f500002003a001a
:108d400015cea8000100370015cea90000e8a90043
:0c8d50000080fa004f00be00004006004a
:020000040000fa
:108e0000801f78000000fa00008080000000e00071
:108e100003003200008080000000e900008088002c
:108e2000308080000000e0000300320030808000cd
:108e30000000e90030808800003020001000780039
:108e400050808800908080000000e0000b0032001d
:108e5000908080004900de00610060000004e000b6
:108e600002003200148ea80001003700148ea90001
:108e7000908080000000e900908088000108a9002f
:108e800001a8a9000080fa004f0078000040060009
:020000040000fa
:108b00003600f800809fbe00829fbe00849fbe009a
:108b1000869fbe000000fa00d000210010407800bf
:108b20000004e00004003a00aa1402000000000063
:108b30000168a90002003700501d0200000000007b
:108b40000080fa004f03be004f02be004f01be007e
:0c8b50004f00be003600f9000040060097
:020000040000fa
:108800003600f800809fbe00829fbe00849fbe009d
:10881000869fbe000000fa00d000210010407800c2
:108820000004e00004003a00aa1402000000000066
:1088300003c8a90002003700681e02000000000003
:108840000080fa004f03be004f02be004f01be0081
:0c8850004f00be003600f900004006009a
:020000040000fa
:108a00003600f800809fbe00829fbe00849fbe009b
:108a1000869fbe000000fa00c21d02000000000098
:108a20000080fa004f03be004f02be004f01be009f
:0c8a30004f00be003600f90000400600b8
:020000040000fa
:108900003600f800809fbe00829fbe00849fbe009c
:10891000869fbe000000fa00d81e02000000000082
:108920000080fa004f03be004f02be004f01be00a0
:0c8930004f00be003600f90000400600b9
:020000040000fa
:108e900080d50000430200004d5000004330000028
:108ea000303300000000000010000000010000004e
:108eb00001000000332000005061000064640000e5
:108ec0006c650000204d00006f7400006f720000a0
:108ed0006973000065640000205000006f6c0000a2
:108ee00061720000697a0000657200002043000092
:108ef0006f6e0000747200006f6c00006c65000003
:108f000072000000000000000000000000000000ef
:108f10000000000000000000000000000000000051
:108f20000000000000000000000000000100000040
:108f30000000000002000000910400000e0000008c
:108f4000812100000000000000000000000000007f
:108f50000000000000000000000000000000000011
:020000040000fa
:100998000000fa00e44802000000000001002800fe
:1009a80000c02000010878007100200020c020004d
:1009b800010878000158250040c02000010878008f
:1009c800815c200060c420000108780060c4200019
:1009d8009000780060c220000108780060c2200002
:1009e8009000780060c6200001087800805c200034
:1009f800b0808800b0808000c0808800c0808000ff
:100a0800d0808800805c20002081880020818000c0
:100a18001081880010818000008188000000eb00b0
:100a2800508188005081800040818800408180008a
:100a38003081880020742000104078000042b20005
:100a48000004e000fbff3200148ea90020e0200023
:100a580010407800624060000004e0000a003a009c
:100a6800d10021000040eb0080487800701c200075
:100a7800121d020000000000701c20002a1e020047
:100a8800000000000b003700d100210010c0b300a7
:100a98008048780050022000121d0200000000006b
:100aa800500220002a1e0200000000002188a80031
:100ab80023e8a800044ea800f01f02000000000070
:100ac8000080fa00000006000400fa008000eb0035
:100ad80040052000010878000000eb001000ba0073
:100ae800100798000000eb001080ba00000f780093
:100af8001e00780001002000c001dd000200200077
:100b08001e0090000100200000007100818071002b
:100b18000080fa00000006007600fa00a0352100e7
:100b280030079800803c210020079800604421008d
:100b380010079800400c2100000f78002046210083
:100b48001000780060079800604621001040780087
:100b58000074a100104f980074004700100f98000f
:100b68007400470066004000000f9800804621008e
:100b7800700798001e089000e30040000040eb005a
:100b8800804878001e089000e400400010c0b300c0
:100b9800804878001e089000e50040001e4890003c
:100ba800804878000040eb00004f98004046210044
:100bb800104078000000fb00103f98001e3890009d
:100bc800e20f50000b0032009e389000e48f500076
:100bd8000c0032001e389000e10f50000100320076
:100be8000c003700210c210010c8b30080487800a1
:100bf8000b003700210c210020c8b3008048780082
:100c080007003700210c210030c8b3008048780065
:100c180003003700210c21000040eb0080487800d9
:100c2800ee009000213f980010412000ae3890005f
:100c3800808f50002501320010412000ae3890000e
:100c4800808f50002d003e002e389000f50f500088
:100c58006b023200ae389000f58f500011003e0054
:100c68002e389000f10f500098003200ae389000f6
:100c7800f18f500004003e002e389000e50f500020
:100c88005600320087023700ae389000f28f5000cd
:100c9800920032002e389000f40f50004f023200bc
:100ca8008002370010212000ae389000808f50005d
:100cb800be00320010212000ae389000808f500016
:100cc80005003e0000212000ae389000808f5000c3
:100cd800860032007302370030222000ae389000c0
:100ce800808f50007600320000412000ae3890001e
:100cf800808f5000e30032006a023700004920006c
:100d0800ae389000808f5000180132000049200052
:100d1800ae389000808f500016003e00304520000d
:100d2800ae389000808f50003b01320030452000e3
:100d3800ae389000808f500005003e0030442000ff
:100d4800ae389000808f50001b01320055023700ea
:100d580050462000ae389000808f50005701320076
:100d6800a0462000ae389000808f500081013200ec
:100d78004c02370000532000ae389000808f50009e
:100d8800b801320000532000ae389000808f500028
:100d980009003e0020492000ae389000808f5000a6
:100da80001013200904b2000ae389000808f500037
:100db800aa0132003b02370010532000ae389000e1
:100dc800808f5000c101320060682000ae3890006a
:100dd800808f5000eb013200320237009e089000ed
:100de80060002000800878001e0890008080e800dd
:100df80040c5b300804878001e0890006401400098
:100e08001e089000640040009040780000c8b300bd
:100e180000c07000004978000e08900081742c0012
:100e280029000900311878004005b1008e089000ab
:100e380030c3b300a05098008e08900030c3b300b0
:100e4800904898000e099000d0a08000e1a0800092
:100e58000089be000e089000003f9800e0a88000be
:100e6800e30f500003003a0021002000713798007a
:100e78000200370010002000703798007e30900084
:100e88008e389000f02098008e089000406f200067
:100e9800d02098008e089000207a2000e02098004a
:100ea8008e089000300020009028980010c0b300f1
:100eb800004f980020002000f0a88800fb013700b0
:100ec8000040210090808800f8013700f0868000fb
:100ed8000080a000f0868800f4013700f0868000ca
:100ee8000080a100f0868800f0013700200c210066
:100ef80010407800e7406000200c2100014878008d
:100f080050462100104078008000fb00f00f2000c0
:100f180000806000e10f5000e4013a0040462100e3
:100f2800104078000000fb00610060000004e00051
:100f380003003200100020003081880002003700d2
:100f48000000eb0030818800404621001040780006
:100f58000000fb000000d100610060000004e00018
:100f68000300320010002000408188000200370092
:100f78000000eb00408188004046210010407800c6
:100f88000000fb004200de00610060000004e00099
:100f9800030032001000200050818800c301370090
:100fa8000000eb0050818800c00137009e089000c7
:100fb8002021200080087800200c210010407800b3
:100fc800e7406000200c210001487800200c210037
:100fd80010407800e34f5000b4013c00200c210081
:100fe800104078000000fb000000e900800040008d
:100ff8006002210000804000100078000000e0003e
:101008000d003a001e089000e30140001e01780020
:10101800d2089000f0df2f0000806000500998008f
:101028001e007800500890004900de006140600012
:10103800804978000c0037001e089000e30140004a
:101048001e017800d2089000002020000080700067
:10105800500998001e007800500890004900de00f2
:1010680061406000804978001e0890008080e80098
:1010780010c0b3008048780010c0b300004f98003b
:101088008a013700200c210010407800e7406000fa
:10109800200c210001487800200c21001040780025
:1010a8000000fb000001e9007e009000a000900015
:1010b800100090008001780082004100600121004a
:1010c800008040000308780078013700200c2100d8
:1010d80010407800e7406000200c210001487800ab
:1010e8009e08900020412000800878001e0890008b
:1010f8008080e80060c0b300804878001e08900037
:10110800640140001e089000640040009040780090
:1011180000c8b30000c07000004978008e08900035
:1011280040462100104078000000fb00800878004d
:101138000e099000200c2100104078000000fb00f0
:101148000000e900800040006001210000804000ac
:1011580010007800cf80de0010019800210198006f
:1011680010c0b300004f98005001370040462100de
:1011780090407800200c210001487800200c2100c4
:1011880010407800e7406000200c210001487800fa
:10119800200c210010407800804078001049200081
:1011a8004a010700410137009e0078000000eb006b
:1011b800801098003d013700200c21001040780075
:1011c800e7406000200c21000148780040462100db
:1011d8001040780067406000310907004046210050
:1011e80090407800200c210001487800200c210054
:1011f80010407800e7406000200c2100014878008a
:10120800200c210010407800804078001049200010
:101218002e010700250137007e009000100078009d
:1012280080407800200c210001487800200c210023
:1012380010407800e14f500005003a007e00900011
:10124800a000900010009000701fb000008188007e
:10125800200c210010407800e24f500005003a00b1
:101268007e009000a000900010009000701fb00059
:1012780010818800200c210010407800e44f5000b5
:1012880005003a007e009000a00090001000900039
:10129800701fb00020818800200c210010407800c9
:1012a800804078001049200008010700210c210027
:1012b8000040eb0080487800fc003700200c21003b
:1012c80010407800e7406000200c210001487800b9
:1012d80040462100104078000000fb0061006000db
:1012e8000004e00002003200b08080000081880025
:1012f80040462100104078000000fb000000d100ab
:10130800610060000004e00002003200c08080003c
:101318001081880040462100104078000000fb0042
:101328004200de00610060000004e00002003200bc
:10133800d0808000208188004046210090407800bd
:10134800200c210001487800200c21001040780072
:10135800e7406000200c210001487800200c2100a3
:10136800104078008040780010492000d70007001e
:10137800ce003700200c210010407800e7406000c4
:10138800200c2100014878005046210010407800c8
:101398008000fb00f00f200000806000e10f50008b
:1013a80010003a00200c2100104078000000fb00db
:1013b8000000e9008000400060012100008040003a
:1013c80010007800800078009081800080804000c4
:1013d800200c2100104078000040e9007c0807003c
:1013e8000f003700200c2100104078000000fb009f
:1013f8000000e900800040006001210000804000fa
:101408001000780080007800908180008080500073
:10141800200c2100104078000040e9006c0807000b
:101428004046210090407800200c210001487800b7
:10143800200c210010407800e7406000200c2100bb
:1014480001487800200c2100104078008040780086
:10145800104920009d00070094003700100907007c
:10146800920037007e009000200090008081880064
:101478007e00900010009000a200200011000900da
:101488000200d80080407800905021000148780080
:10149800e010200010007800ea02b8009050210007
:1014a800104078000081fb00110009000282d8007a
:1014b80080007800c0102000010878007e009000ad
:1014c800300090009081880078003700200c2100bf
:1014d80010407800e7406000200c210001487800a7
:1014e8009e08900020532000800878001e08900075
:1014f8008080e800c0c0b300804878001e089000d3
:10150800640140001e08900064004000904078008c
:1015180000c8b30000c07000004978008e08900031
:1015280040462100104078000000fb008008780049
:101538008e08900090502100104078000080fb0039
:10154800ea00b800900098008e0890008081800022
:10155800a00098008e08900090818000b00098004c
:101568008e0890000000eb00c00098008e089000e4
:101578000000eb00d000980010c0b300004f9800a6
:101588004a0037009150210010c0b300804878000d
:10159800e010200010007800ea02b8009050210006
:1015a800104078000081fb00110009000282d80079
:1015b80080007800c0102000010878005003200047
:1015c80090818800805c200080818800e10b2100e8
:1015d80010c0b30080487800340037007e009000c7
:1015e8001000be00d0a08800e1a08800d0a0800034
:1015f800e1a08000a0818800b18188002b0037001d
:101608009e08900060012000800878001e08900065
:101618008080e80080c2b300804878001e089000ef
:10162800640140001e08900064004000904078006b
:1016380000c8b30000c0700000497800a081800095
:10164800b1818000d0a08800e1a088000e09900038
:10165800d0a08000e1a080000089be00100020001a
:1016680050079800090037008e0890005e0090002f
:101678004200dd00010140006000b8000089be00a2
:101688005e0090000000e800500798005e0090009f
:10169800e90f5000f4ff360010c0b300004f980067
:1016a800020037000040eb00004f98000e48900001
:1016b8000004e0000300320074004700ae1f02007f
:1016c800000000000080fa00000006001c00fa007c
:1016d800400f9800215f980064004700c1792c00f2
:1016e80013000900315878004001b100400c210076
:1016f800000f7800e400470000c5b300d040980010
:101708004e08900080407800640047000148780047
:101718004e0890004800de008040780064004700d2
:1017280011409800640047006600400010079800c8
:101738002e5890008080fb001e0090000108780061
:101748002e589000e24f5000100036005081800063
:10175800e10f500008003a00d180800090e02f008f
:1017680000804000cf80de001e019000100198002c
:1017780021019800200037001e0190006000b80089
:1017880010019800210198001b0037002e58900086
:101798000080fb000000e90080004000600221009a
:1017a8000080400010007800e10f50000e003a0061
:1017b8002e5890000080fb000000e90080004000e7
:1017c80060012100008040009000780090e02f0028
:1017d80000804000cf80de001e01900010019800bc
:1017e80021019800040037001e0190006000b80035
:1017f80010019800210198009050210010407800b5
:101808008080fb001e009000310098009e00900030
:101818000000eb00c00098002e5890000d00070053
:101828001e01900050019800610198006400470073
:10183800ae1f0200000000001e007800001090009b
:101848008000e8001e007800011098000080fa006f
:10185800000006000600fa00404798006000b80043
:10186800008fbe004e409000e24f500028003e001e
:101878004e4090000080fb000000e900800040001e
:10188800600221000080400010007800e10f500045
:1018980006003a001e00be000200200003002800d7
:1018a8000200700083807000008fbe004e409000e0
:1018b8000080fb008000e900c00221000080400099
:1018c80010407800e14f500004003a00002020004a
:1018d800010020001e1f70001e9770004e409000ef
:1018e8000080fb008000e900c00221000080400069
:1018f80010407800e24f50001e003a0000402000df
:10190800010020001e1f70001e977000190037008c
:1019180050818000e10f500006003a001e00be0012
:10192800020020000300280002007000838070007d
:10193800008fbe00e002210010407800e14f500007
:1019480004003a0000202000010020001e1f700043
:101958001e977000e002210010407800e24f50000e
:1019680004003a0000402000010020001e1f700003
:101978001e9770004e409000e24f500026003e0037
:101988004e4090000080fb000000e900800040000d
:101998006001210000804000100178004e40900056
:1019a8000080fb000000e9008000400000022100e8
:1019b8000080400010007800800f510001003400c2
:1019c8001e40a0004e4090000080fb000000e9008f
:1019d8008000400060012100008040001001780074
:1019e8004e4090000080fb000000e90080004000ad
:1019f800000221000080400010007800800f510094
:101a080012003d0000022000010020001e1f70008f
:101a18001e9770000d003700d18080002081800063
:101a2800808f5000010034001e40a000d18080004b
:101a380020818000808f500004003d0000022000bb
:101a4800010020001e1f70001e9770001e00be00bf
:101a58000080fa00000006006800fa0000379800cd
:101a6800113798002237980041a980001e30900055
:101a7800810f50003f0032006600470020079800a1
:101a8800660047006600400010079800ae0090000e
:101a980010082000800878002e0090008080e80060
:101aa80040c4b300804878002e009000e300400056
:101ab8000040eb00804878002e009000e4004000d1
:101ac80010c8b300804878002e009000e500400060
:101ad80010c2b300804878009e0090000e3090003d
:101ae800800878009e0090001e30900090009800ba
:101af8000000eb00000f78009e0190009e00780027
:101b08002e309000104178006480400003004000af
:101b1800024878001e0fe8002e3090001040780030
:101b280060e798006ee090000004e00002003200d8
:101b380010c0b30060e798006ee09000ae309000ef
:101b48008100e800213798000004e000eaff3a002d
:101b58009e30900000002800808f50000300320063
:101b68002e009000ae1f0200000000001e30900002
:101b780040a988000080fa00000006000600fa006c
:101b8800881f780082fb0700148ea900e10221005b
:101b98000040eb0080487800e00221009040780087
:101ba800d002210001487800d0022100904078003e
:101bb800c002210001487800e4060700a0818000e7
:101bc800b1818000d0a08800e1a08800e00b21004e
:101bd80010407800e14f400016003a00e10b210068
:101be80000c3b30080487800e00b210090407800e3
:101bf8000001210001487800148ea800400620004a
:101c080065060700148ea900805c2000808188008a
:101c180050032000908188009150210010c0b3002b
:101c28008048780000582d0031242000d0a088007a
:101c3800e1a08800e010200010007800ea02b80057
:101c480090502100104078000081fb00110009002d
:101c58000282d80080007800c010200001087800b7
:101c680000003700d0002100104078000004e00098
:101c780009023a00f00b210010407800e14f5000b3
:101c8800f8ff3a002080800020079800f0862600a0
:101c9800ae009000808f500069013200f086260067
:101ca8002e019000800f510036003e003053260070
:101cb8002e029000800f520018003e00105326009c
:101cc800ae009000808f5000ef01310010362600e2
:101cd8002e019000800f51000001320010362600be
:101ce8002e029000800f520006003e00f0ec290002
:101cf800ae00900000804000e20f5000dc013e0082
:101d080083003700f0bc29002e019000000041003c
:101d1800e20f5000d6013e00db013700f0762600c6
:101d28002e029000800f520031013200f07626001a
:101d3800ae009000808f500009003e00107626000b
:101d48002e019000800f5100e1003200a07626009d
:101d58002e029000800f5200be013200c4013700ed
:101d680030772600ae009000808f5000d1003200fe
:101d7800607726002e019000800f5100a2013200ea
:101d8800bb013700302327002e029000800f52003d
:101d980017003e0010232700ae009000808f5000ef
:101da8003100310060e726002e019000800f5100bd
:101db8004b01320060e726002e029000800f52008f
:101dc80005003e00e0962600ae009000808f50008f
:101dd800b0003200a6013700f0fc28002e01900068
:101de80000004100e20f5000a1013e0086003700cc
:101df800f03627002e029000800f520005013200b5
:101e0800f0362700ae009000808f500009003e0099
:101e1800502627002e019000800f51009f003200ad
:101e2800a03627002e029000800f52007f0132005a
:101e38008f01370040472700ae009000808f500088
:101e48003b013200305727002e019000800f5100cf
:101e58002f013200603727002e029000800f5200b9
:101e68003c01320082013700208080000000e90038
:101e78006300600080004000600121000080400095
:101e88001000780000047800e00321003005070006
:101e980080004400208080000040e900634060002a
:101ea800cb05070080407800c00021000148780079
:101eb800c0002100104078000004e0000400320057
:101ec800c000210010407800c90307006e013700e8
:101ed800208080000000e90063006000800040006e
:101ee80060012100008040009000780090e02f0001
:101ef800008040006101b9002080800080407800a7
:101f08000042eb0000c5b3006c0307005e01370018
:101f1800208080000000e9006300600020808800c5
:101f2800e00321000a050700e10f40000f003a0016
:101f380020808000800040006002210080804000f6
:101f48000000eb00800878002080800012c3b300f6
:101f5800824040000042eb00f2ff2f000300200007
:101f680000c5b300550307004701370020808000f3
:101f780080004000600221008080400010002000a6
:101f880080087800e0032100f1040700711f200099
:101f980080804000208080000040e8008c05070019
:101fa80080407800c000210001487800c00021006e
:101fb800104078000004e00004003200c000210056
:101fc800104078008a0307002f0137002080800026
:101fd80080004000600121000080400090007800ef
:101fe80090e02f00008040006101b900208080004f
:101ff80014c3b300844040000042eb0000c5b300a6
:102008002e03070020013700208080000000e9002f
:1020180063006000208088002080800080004000ed
:102028006002210000804000100078000000e000fd
:1020380009003a002080800012c3b30082404000ab
:102048000042eb00f2ff2f000300200000c5b300a0
:102058001a0307000c013700208080008000400030
:1020680060012100008040009000780090e02f007f
:10207800008040006101b9002080800014c3b300d3
:10208800844040000042eb0000c5b3000b0307008a
:10209800fd00370038030700fb0037000040eb0065
:1020a800530307006f050700e24902000000000023
:1020b800f5003700c0002100104078004c030700ed
:1020c800c10021000040eb0080487800ee00370096
:1020d8002100210020c0b30080487800e0032100df
:1020e800904078000040eb003047980090c3b30060
:1020f80080cf500002003e0011c0b3003147980065
:10210800e0032100904078000041eb00224798004e
:10211800f0c2b30080cf50000200360014c0b300f4
:1021280024479800be4090002e41900002c06000f5
:102138000004e00008003200e0032100904078002d
:10214800e00b210001487800c00021001040780011
:1021580027030700cc003700e003210090407800f7
:102168000042eb001447980060c4b30080cf5000d1
:1021780002003e0010c0b30010479800e0032100a1
:10218800904078000041eb00024f780000c4b30093
:1021980080cf50000200360014c0b300044f78000e
:1021a8009e4090001e41780002c060000004e000dc
:1021b80008003200e003210090407800e00b210085
:1021c80001487800c000210010407800080307008b
:1021d800ad003700c100210040c0b300804878003e
:1021e800c00021001040780001030700a600370056
:1021f8008181800090e02f00008040006101b800dc
:1022080014c0b300f1c4b30080c4b300ab0207002c
:102218009d003700e003210064030700701fb00031
:1022280080818800c10021000040eb0080487800d0
:10223800c000210010407800ed020700920037002e
:10224800e003210010407800674060001405070093
:1022580080407800c000210001487800c0002100bb
:10226800104078000004e00004003200c0002100a3
:1022780010407800de02070083003700c18080002c
:1022880090e02f00008040006101b9000042eb009f
:1022980011c3b30000c5b30088020700d1808000d5
:1022a80090e02f00008040006101b9000042eb007f
:1022b80021c3b30000c5b30080020700e18080009d
:1022c80090e02f00008040006101b9000042eb005f
:1022d80031c3b30000c5b300780207006a003700b5
:1022e8000004210031030700a0818800b181880023
:1022f8006b050700c10021000040eb008048780012
:10230800c000210010407800b90207005e003700c5
:10231800c10021000040eb0080487800c000210087
:1023280010407800b20207005d050700560037002c
:10233800708080006101b80014c0b30041c5b300cb
:1023480040c5b3005d0207000000eb007080880004
:102358004d003700e00321004b0407000080fb001c
:10236800a2002000110009000280d80080407800f7
:1023780090502100014878009050210010407800ca
:10238800ea4f500004003e009050210010407800b1
:102398000004e0000a003a009150210010c0b30088
:1023a80080487800c1002100c0c0b3008048780090
:1023b800c0002100104078008d0207000600370099
:1023c800c10021000040eb0080487800c0002100d7
:1023d8001040780086020700e01020001000780006
:1023e800ea02b80090502100104078000081fb00fc
:1023f800110009000282d80080007800c010200077
:102408000108780020003700905021001040780023
:102418000080fb00ea00b8000041780061c5b30005
:1024280070c4b3004102070017003700e003210021
:10243800de02070090818800c10021000040eb0007
:1024480080487800c000210010407800680207002a
:102458000d003700908180006101b80014c0b300fe
:10246800a1c4b30070c4b30014020700060037000b
:10247800c100210030c0b30080487800c0002100ae
:10248800104078005a020700f10b21000040eb00d1
:1024980080487800f3fd3700401f0200000000006c
:1024a800a0522100104078000004e000050032002e
:1024b80099f90700a15221000040eb0080487800fc
:1024c800e8fd370040012100104078008000fb0043
:1024d800c00221000080400010407800e14f500009
:1024e80028003a0040012100104078000000fb005d
:1024f800800040006001210000804000100078004a
:102508008000780080818000701fb000808f5000ac
:1025180057003a0040012100104078008000fb007d
:10252800c00221008080400020c0b30080487800ad
:10253800f0a88000e20f50004d003a004001210051
:10254800104078008040e8001051210001487800d0
:102558004001210010407800e24f500005003a0089
:1025680010512100104078008040e80010512100ef
:1025780001487800f0502100ae1f02000000000062
:102588003b00370040012100104078000000fb00ac
:1025980080004000600121000080400010017800a8
:1025a80040012100104078000000fb00800040003e
:1025b800000221000080400010007800800f5100c8
:1025c8000800320040012100104078008000fb0024
:1025d800c00121008080400010c0b300804878000e
:1025e8002300370040012100104078008000fb00e4
:1025f800c00121000080400010407800e14f5000e9
:102608001b003a00f0a88000e20f500018003a00c2
:1026180040012100104078008000fb00c00121002b
:10262800808040000040eb00804878004001210095
:10263800104078008040e80070512100014878007f
:102648004001210010407800e24f500005003a0098
:1026580070512100104078008040e800705121003e
:102668000148780050512100ae1f02000000000010
:1026780040012100104078008040e800400121001e
:10268800014878004001210010407800e24f5000d6
:1026980074fd3400410121000040eb0080487800bf
:1026a80070fd37000200fa0000003700100020001b
:1026b800b903070080002100104078000000fb00eb
:1026c800000f78001e007800e20f50004100320031
:1026d8001e007800e20f500007003c001e00780042
:1026e8000000e0000e0032001e007800e10f5000ec
:1026f80022003200910037001e007800e40f5000dd
:10270800610032001e007800e40f500048003500d8
:102718001e007800e50f5000720032008700370075
:1027280060c220009000780080992000808f5000bf
:1027380006003e0060c22000100078008000e8001b
:1027480060c2200001087800d8ff3700800021000f
:10275800104078008040e80080002100014878009f
:1027680014c0b300f23f200003002000f1c4b300fe
:1027780000c5b30051010700ccff370060c220003c
:1027880090007800701f2000808f500006003600ef
:1027980060c22000100078008000e90060c22000bc
:1027a80001087800c1ff3700800021001040780040
:1027b8008040e800800021000148780014c0b30080
:1027c8006011b800f1c4b30000c5b3003b010700b5
:1027d800b6ff370060c42000900078008099200080
:1027e800808f500006003e0060c420001000780072
:1027f8008000e80060c4200001087800abff3700c3
:1028080080002100104078008040e800800021000e
:102818000148780014c0b30002c02f00f300200064
:10282800f1c4b30000c5b300240107009fff3700bf
:1028380060c4200090007800701f2000808f500036
:102848000600360060c42000100078008000e9000f
:1028580060c420000108780094ff37008000210040
:10286800104078008040e80080002100014878008e
:1028780014c0b3006011b800f1c4b30000c5b300c0
:102888000e01070089ff370060c62000900078001d
:1028980080992000808f500006003e0060c620000e
:1028a800100078008000e80060c620000108780069
:1028b8007eff370080002100104078008040e8004b
:1028c800800021000148780014c0b30002002000f5
:1028d80003ff2300f1c4b30000c5b300f7000700ed
:1028e80072ff370060c6200090007800701f20003b
:1028f800808f50000600360060c620001000780067
:102908008000e90060c620000108780067ff3700f2
:1029180080002100104078008040e80080002100fd
:102928000148780014c0b3006011b800f1c4b300c6
:1029380000c5b300e10007005cff370081002100fb
:102948000040eb008048780058ff37000200fa008a
:10295800602220001000780080407800800e21005e
:1029680001487800308080000000e00003003a0051
:10297800310021000040eb0080487800800e2100e3
:1029880010407800ed4f500003003a00310021005c
:102998000040eb0080487800007d200030808800ef
:1029a800f00b210010407800e24f500004003a007c
:1029b800310021000040eb0080487800bd0037005e
:1029c80030002100104078000080fb00000f7800e4
:1029d8001e007800e10f50001f0032001e00780032
:1029e800e10f500004003c001e0078000000e000e9
:1029f80008003200ac0037001e007800e20f5000db
:102a0800300032001e007800e30f500080003200d2
:102a1800a5003700b10321000040eb008048780092
:102a2800800e210090407800e00b210010407800d3
:102a380080cf500004003a003100210010c0b300dc
:102a4800804878009b003700310021000040eb00ef
:102a58008048780097003700800e21009040780069
:102a680000c6b30080cf500012003600800e21004f
:102a780090407800a0c7b30080cf50000d003e0002
:102a88003100210020c0b30080487800800e21006a
:102a9800104078000080fb004800dd00208088009e
:102aa800800e210090407800a003210001487800a2
:102ab80080003700310021000040eb00804878009a
:102ac8007c003700800e21009040780000c3b300de
:102ad80080cf50004a003600800e210090407800d8
:102ae800a0c7b30080cf500045003e0091002100f0
:102af8000040eb0080487800240037009000210057
:102b0800104078008080fb00204e210000804000ab
:102b180090407800a00321001040780080cf50003a
:102b280014003a0090002100104078000080fb005b
:102b38008000e800204e210000804000904078008e
:102b4800800e21001040780080cf500009003a0024
:102b580090002100104078000080fb008080e80091
:102b6800204e21000080400090407800b0032100f2
:102b78000148780090002100104078006340400030
:102b880080407800900021000148780090002100e2
:102b98009040780060c2b30080cf5000d7ff360065
:102ba800800e2100104078008080fb00208080008b
:102bb8000080700020808800b00321001040780059
:102bc8000004e00007003a00f10b210010c0b30038
:102bd80080487800310021000040eb0080487800f0
:102be800340037003100210030c0b300804878003d
:102bf800d10321000040eb00804878002d00370009
:102c0800310021000040eb0080487800290037009f
:102c1800d0032100104078000004e0001e003500b9
:102c2800d0032100104078000081fb00800e2100b5
:102c380090407800e003210000004100014878003e
:102c4800d0032100104078008040e800d003210024
:102c580001487800d003210090407800b00321009b
:102c68001040780080cf500012003a00f10b21008c
:102c780010c0b30080487800b0032100904078006d
:102c8800c003210001487800310021000040eb001a
:102c98008048780007003700310021000040eb0031
:102ca8008048780003003700310021000040eb0025
:102cb800804878000080fa00000006000800fa004a
:102cc800004f7800114798001207980023079800d2
:102cd80064479800e00b2100104078005500070079
:102ce8001e407800530007001e4090005100070066
:102cf8006e4090000004e000040032001e009000c6
:102d0800ae0090008c000700020037001e00900003
:102d18007d000700d0c0b30046000700a0c0b30084
:102d2800440007000080fa00000006000400fa00d2
:102d3800004f78001147980022479800e00b2100c7
:102d4800104078003b0007001e407800390007005b
:102d58001e409000370007002e4090004a000700f0
:102d6800d0c0b30033000700a0c0b3003100070093
:102d78000080fa00000006000000fa00e00b2100c5
:102d8800104078002b00070090c4b300290007000a
:102d9800e0c4b3002700070030c0b3003a000700c2
:102da800a0818000b181800063000700c08180009d
:102db800550007000040eb003300070010c0b300c7
:102dc80031000700400b20004f000700207a200048
:102dd8000100200058000700d0c0b300150007000c
:102de800a0c0b300130007000080fa00000006002e
:102df8000200fa00004f7800e00b21001040780034
:102e08000c00070070c4b3000a00070030c5b30007
:102e1800080007001e4078001b000700d0c0b30060
:102e280004000700a0c0b300020007000080fa00f9
:102e3800000006000200fa00004f7800302220004f
:102e480010407800614060000004e000fbff3200a1
:102e58009e80fb00402220000108780030232000db
:102e680010407800614060000004e000fbff320081
:102e78009e80fb0040232000010878001e80fb0094
:102e88000080fa00000006000400fa0020479800bd
:102e98002e4090008080fb00000f20000080600022
:102ea8004480de000043b000004f780090c3b300b8
:102eb8009e4f1000030036001e4078006740400017
:102ec800004f78001e407800daff07002e4090007f
:102ed8006f4060000043b000004f780090c3b3001b
:102ee8009e4f1000030036001e40780067404000e7
:102ef800004f78001e407800ceff07000000eb006e
:102f08000080fa00000006000400fa00100798008c
:102f18001e0090004800de00dbff0700004f78002d
:102f28001e009000d8ff07001e4f40001e80fb00c7
:102f38000080fa00000006000600fa00100798005a
:102f4800210798001e009000ae0090004808de009f
:102f580001002000ccff0700004f78001e00900001
:102f6800ae0090004008de0001002000c6ff070008
:102f78001e4f40001e009000ae0090004809dd0082
:102f88004800de0000007100c808de00beff070030
:102f98001e4f40001e009000bbff07001e4f400060
:102fa8001e80fb000080fa00000006000e00fa00f8
:102fb800400798004e009000104078005901070023
:102fc8000080fb0001002000008fbe001e00be0034
:102fd8004c09dd004400de0000007100c408de007a
:102fe800610060000004e000040032006000b800e6
:102ff8005007980061079800d10037001e00be00f6
:10300800cc00dd0000002000200798003107980060
:103018004e0090000000e8001040780041010700d1
:103028000080fb0001002000008fbe001e00be00d3
:103038004c09dd004400de0000007100c408de0019
:10304800610060000004e000040032006000b80085
:103058005007980061079800b90037001e00be00ad
:10306800c801dd00020020002e009000be00900084
:1030780002007000838070002007980031079800d4
:103088004e0090000080e8001040780025010700fd
:103098000080fb0001002000008fbe001e00be0063
:1030a8004c09dd004400de0000007100c408de00a9
:1030b800610060000004e000040032006000b80015
:1030c80050079800610798009d0037001e00be0059
:1030d800c401dd00020020002e009000be00900018
:1030e8000200700083807000200798003107980064
:1030f8004e0090006300400010407800090107006e
:103108000080fb0001002000008fbe001e00be00f2
:103118004c09dd004400de0000007100c408de0038
:10312800610060000004e000040032006000b800a4
:103138005007980061079800810037001e00be0004
:10314800c001dd00020020002e009000be009000ab
:1031580002007000838070002007980031079800f3
:103168004e0090006400400010407800ed00070019
:103178000080fb0001002000008fbe001e00be0082
:103188004c09dd004400de0000007100c408de00c8
:10319800610060000004e000040032006000b80034
:1031a8005007980061079800650037001e00be00b0
:1031b8004c09dd00c401de00830171004c01dd0013
:1031c8002e009000be009000020070008380700006
:1031d80020079800310798004e00900065004000d5
:1031e80010407800cf0007000080fb00010020009d
:1031f800008fbe001e00be004c09dd004400de004a
:1032080000007100c408de00610060000004e000f6
:10321800040032006000b800500798006107980069
:10322800470037001e00be004809dd00c801de0067
:10323800830171004801dd002e009000be0090005f
:103248000200700083807000200798003107980002
:103258004e0090006600400010407800b100070062
:103268000080fb0001002000008fbe001e00be0091
:103278004c09dd004400de0000007100c408de00d7
:10328800610060000004e000040032006000b80043
:103298005007980061079800290037001e00be00fb
:1032a8004409dd00cc01de00830171004401dd002a
:1032b8002e009000be009000020070008380700015
:1032c80020079800310798004e00900067004000e2
:1032d80010407800930007000080fb0001002000e8
:1032e800008fbe001e00be004c09dd004400de0059
:1032f80000007100c408de00610060000004e00006
:10330800040032006000b800500798006107980078
:103318000b0037002e009000be0090003e017000a8
:10332800ae8170000200be002007980031079800a7
:103338002e009000be00900050079800610798008a
:103348005e009000ee0090000080fa000000060089
:103358000800fa00200798002e009000104078001e
:10336800700007000080fb00000f78001e00780046
:103378004400de00610060000004e0000300320049
:103388000000eb00300798003c0037001e00780072
:103398004c00dd00100798002e0090000000e800a7
:1033a800104078005f0007000080fb00000f7800e5
:1033b8001e0078004400de00610060000004e000a8
:1033c800030032000000eb00300798002b003700a4
:1033d8001e007800c800dd001e009000010070008b
:1033e800100798002e0090000080e8001040780038
:1033f8004c0007000080fb00000f78001e007800da
:103408004400de00610060000004e00003003200b8
:103418000000eb0030079800180037001e00780005
:10342800c400dd001e009000010070001007980025
:103438002e0090006300400010407800390007001b
:103448000080fb00000f78001e0078004400de00ba
:10345800610060000004e000030032000000eb009f
:1034680030079800050037001e0090001e0070000d
:10347800100798001e009000300798003e0090004a
:103488000080fa00000006000600fa001007980005
:103498001e0090001040780022000700004f7800be
:1034a8001e80fb004400de00610060000004e000b4
:1034b800030032000000eb002007980016003700d8
:1034c8001e4078004400dd00104798001e00900060
:1034d8000000e8001040780012000700004f780054
:1034e8001e80fb004400de00610060000004e00074
:1034f800030032000000eb002007980006003700a8
:103508001e4090001e407000104798001e4090001a
:103518000080fb00200798002e0090000080fa0031
:10352800000006000600fa0020479800ae40900010
:10353800f0c2b30080cf500004003600ae409000c7
:1035480060c4b30080cf50000300360000012000a3
:10355800200798000d003700ae40900000cdb30062
:1035680000c04000004f7800ae40900090c3b30008
:1035780080cf5000030036001e407800674050009e
:10358800004f78001e80fb00200798002e00900056
:103598000080fa00000006000400fa0010079800f6
:1035a8000000eb00000f780004003700803e200088
:1035b800d0490200000000001e0fe8001e00900025
:1035c8009e0f5000f9ff3e000080fa000000060040
:1035d8000600fa00004f7800110798009e0090003e
:1035e80090992000808f500003003600c000200012
:1035f80020079800180037009e009000601f2000e8
:10360800808f500003003e00c00020002007980073
:10361800110037001e80fb001e0190008000400052
:10362800000221000080400002087800e1502100db
:103638000040eb0080487800409c20000080880013
:1036480001808000409c20000100500070808800ac
:103658000000eb00200798002e0090000080fa0080
:10366800000006000000fa0005e1a90021e3a90016
:1036780013e1a9000080fa00000006000000fa002b
:103688000068a9000108a90001a8a90005e1a8008f
:1036980021e3a80013e1a8000080fa00000006005a
:1036a8000200fa00004f78001e80fb0061006000f5
:1036b8000004e00008003200c102210010c0b3007d
:1036c8008048780080818000711f20008080400041
:1036d8000040eb00beff07001e80fb000000d10089
:1036e800610060000004e00008003200d1022100ff
:1036f80010c0b3008048780080818000711f2000ce
:103708008080400010c0b300b1ff07001e80fb009e
:103718004200de00610060000004e00008003200a2
:10372800e102210010c0b300804878008081800049
:10373800711f20008080400020c0b300a4ff070054
:103748000000eb000080fa00000006000400fa0008
:1037580000c024000100200050878800618788008d
:103768005187800060878000d24602000000000078
:10377800008fbe001e00780001002000a081880094
:10378800b181880050878000618780006200400016
:10379800e080480050878800618788005187800052
:1037a80060878000d246020000000000008fbe0043
:1037b8001e00780001002000c001dd00020020008a
:1037c800a0818000b18180000000710081807100bb
:1037d800a0818800b181880060c024000100200019
:1037e8005087880061878800518780006087800043
:1037f800d246020000000000008fbe001e007800c4
:1038080080818800a0c02400010020005087880023
:10381800618788005187800060878000d246020057
:1038280000000000008fbe001e0078009081880014
:1038380080c024000100200050878800618788002c
:103848005187800060878000d24602000000000097
:10385800008fbe001e007800804078009050210044
:103868000148780040c024000100200050878800eb
:10387800618788005187800060878000d2460200f7
:1038880000000000008fbe001e0078008040780015
:10389800e00b2100014878000080fa0000000600d3
:1038a8000800fa0000c0240001002000e6470200da
:1038b80000000000a0818000b1818000f2ff2f008d
:1038c80003002000000278008102780002007800de
:1038d8008300780000026200018062006101b80084
:1038e800028fbe001e00be00c000dd0000002000e8
:1038f800008fbe001e01be006120b800008fbe0010
:103908001e00be00000171008181710000c024000a
:10391800010020004048020000000000a081800053
:10392800b18180004008de0001002000f2ff2f0076
:10393800030020000002780081027800020078006d
:103948008300780000026200018062006101b80013
:1039580022079800330798002e009000be009000c0
:10396800c000dd0000002000200798003107980003
:103978002e019000be0190006120b8002007980039
:10398800310798002e009000be00900000017100e1
:103998008181710020c024000100200040480200fd
:1039a80000000000e00b2100104078000081fb00bf
:1039b8000300200040c0240001002000404802000d
:1039c8000000000090502100104078000081fb00aa
:1039d8000300200080c024000100200040480200ad
:1039e80000000000808180006101b80060c02400f0
:1039f8000100200040480200000000009081800083
:103a08006101b800a0c02400010020004048020065
:0c3a1800000000000080fa000000060022
:020000040000fa
:108f60000000fa00d0002400817220008008780000
:108f7000c3e8a9005005200070398800a00a20002d
:108f80007039880029e7a8000000000000000000f8
:108f9000907220009040780000c8b30000c06000cc
:108fa0000004e000faff3a00c3e8a8009072200035
:108fb000104078000080fb004500de00614060004a
:108fc0000080fb000080fa00000006000800fa00a4
:108fd00020079800310798002e009000be009000f6
:108fe000008fbe002e4090008080fb0040052000d6
:108ff000010878009e009000c072200001087800ef
:109000009e007800a0722000010878009e00780081
:109010000080eb008008bb0031002400807220003b
:1090200001087800c3e8a9005005200070398800c5
:10903000a00a20007039880029e7a800000000007d
:1090400000000000907220009040780000c8b3003b
:1090500000c060000004e000faff3a00c3e8a80086
:1090600090722000104078000080fb004500de0078
:10907000614060000080fb000080fa0000000600f4
:109080001000fa0040079800510798006207980006
:10909000730798004e009000de009000008fbe0025
:1090a0006e009000fe0090002007980031079800a5
:1090b0001100240080722000010878009e009000ba
:1090c000c0722000010878009e007800a072200085
:1090d00001087800a10f2000400520000108780059
:1090e0004e009000de009000630160006000b80058
:1090f000030020000200700083807000e00f500029
:10910000e08f58000d0032008000eb000080eb0083
:109110008008bb0011002000f00f20008088bb00f9
:10912000ae009000200020000108bb00be009000af
:10913000300020000188bb000c003700ae0090001a
:109140000000eb000108bb00be00900010002000f2
:109150000188bb00210020000080eb008008bb00dc
:1091600031002000f00f20008088bb00c3e8a90078
:109170005005200070398800a00a2000703988004e
:1091800029e7a80000000000000000009072200005
:109190009040780000c8b30000c060000004e00008
:1091a000faff3a00c3e8a80090722000104078004f
:1091b0000080fb004500de00614060000080fb0095
:0891c0000080fa000000060027
:020000040000fa
:103a24000200fa00000f7800406c200090407800fb
:103a340000c8b30000c0600021c2b30001407000a0
:103a4400416c200080487800106820009040780085
:103a540000ccb30000c060000004a0001168200086
:103a6400804878008000eb000022200001087800e4
:103a7400802220001e0878008000eb002022200015
:103a84000108780021e2a8002342a8000168a900e7
:103a94002168a8000080fa00000006000200fa0075
:103aa4006022200010007800004f78001e80fb0088
:103ab400808788000168a900118a8000f00720002f
:103ac400808f50000f003c00218a8000e014210008
:103ad400008040001e4878000100e800208a880029
:103ae400218a800000082000808f500002003a00e4
:103af4000000eb00208a8800108a80000000e800a3
:103b0400108a88000080fa00000006000200fa0013
:103b14002168a900108a80000000e00003003a0038
:103b24000080eb00000f780011003700318a80001c
:103b3400e014210000804000104078000080fb0069
:103b4400000f78000100e800308a8800318a800084
:103b540000082000808f500002003a000000eb00b3
:103b6400308a8800108a80000000e900108a8800ea
:103b74002168a8001e0078000080fa0000000600fa
:103b84000000fa00408a80000000e00002003c00cf
:103b94002188a900130037000188a900628a8000e7
:103ba400e01c210000004100104078008000fb0070
:103bb40040222000010878000200e800608a8800a2
:103bc400618a800000082000808f500002003a00c3
:103bd4000000eb00608a8800408a80000000e90051
:103be400408a88000080fa00000006000200fa0003
:103bf400004f7800418a8000f0072000808f500039
:103c0400fcff3c002188a900518a8000e01c2100af
:103c1400008040001e4878000100e800508a8800b7
:103c2400518a800000082000808f500002003a0072
:103c34000000eb00508a8800408a80000000e80001
:103c4400408a88002188a8000080fa00000006004d
:103c54000200fa00000f7800606c200090407800a9
:103c640000c8b30000c0600051c2b300014070003e
:103c7400616c200080487800406820009040780003
:103c840000ccb30000c060003040b30041682000a5
:103c9400804878008000eb000023200001087800b1
:103ca400802320001e0878008000eb0020232000e1
:103cb4000108780031e2a8003342a80003c8a90033
:103cc40023c8a8000080fa00000006000200fa00e1
:103cd4006023200010007800004f780003c8a9007a
:103ce40071928000f0072000808f500010003c008b
:103cf400819280001e417800a025210000804000b0
:103d0400024878000100e8008092880081928000d7
:103d140000082000808f500002003a000000eb00f1
:103d240080928800709280000000e8007092880001
:103d34000080fa00000006000200fa0023c8a9006f
:103d4400709280000000e00003003a000080eb0065
:103d5400000f78001100370091928000a025210007
:103d640000804000104078000080fb00000f7800c5
:103d74000100e800909288009192800000082000e1
:103d8400808f500002003a000000eb0090928800ff
:103d9400709280000000e9007092880023c8a80097
:103da4001e0078000080fa00000006000000fa00ff
:103db400a09280000000e00002003c0023e8a9007b
:103dc40012003700c2928000a02d210000004100a3
:103dd400104078008000fb00402320000108780098
:103de4000200e800c0928800c19280000008200010
:103df400808f500002003a000000eb00c09288005f
:103e0400a09280000000e900a092880003e8a900c5
:103e14000080fa00000006000200fa00004f78005b
:103e2400a1928000f0072000808f5000fcff3c002e
:103e340023e8a900b1928000a02d21000080400059
:103e44001e4878000100e800b0928800b19280001a
:103e540000082000808f500002003a000000eb00b0
:103e6400b0928800a09280000000e800a092880030
:0c3e740023e8a8000080fa00000006000f
:020000040000fa
:1091c8000000fa003100200000e0200001087800cb
:1091d8004122200000e12000010878001100200051
:1091e800e0e02000010878008000eb00e0e12000ca
:1091f8000108780061002000a0e020000108780044
:1092080041222000a0e120000108780040742000dd
:109218009040780000ceb30080c060004074200009
:10922800014878004074200010407800f2c3b30071
:10923800824060004074200001487800607420007b
:109248009000780000e02f0000806000a10420005a
:1092580001007000617420008008780050742000bc
:109268009040780080cfb30080c060005074200028
:10927800014878008001eb00e2c12000113224008f
:10928800d0bc2a0044c220000009780001097800f7
:10929800030a78008001eb00e2c1200011322400ab
:1092a800d0bc2a0044c420000009780001097800d5
:1092b800030a78008001eb00e2c12000113224008b
:1092c800d0bc2a0044c620000009780001097800b3
:1092d800030a780003002500e2c1200011322400af
:1092e800d0bc2a0024c220000009780001097800b7
:1092f800030a780003002500e2c12000113224008f
:10930800d0bc2a0024c42000000978000109780094
:10931800030a780003002500e2c12000113224006e
:10932800d0bc2a0024c62000000978000109780072
:10933800030a780011e1a9003084200090407800e9
:10934800f0c8b30000c060000044a00031842000d1
:1093580080487800010028000011200001087800ea
:1093680000e8a90020e8a80000112000904078003b
:10937800f0ccb30000c060000044a0000111200040
:109388008048780091112100c01020000108780061
:089398000080fa00000006004d
:020000040000fa
:103e80000400fa00a052210010407800e14f5000d9
:103e900023003a0000012000100798002c00370092
:103ea00002a380001e007800804078002046210098
:103eb00000004100014878000200e80000a38800eb
:103ec00000a38000e60f50000c003a00604621007d
:103ed000104078000004e00006003d00404621004c
:103ee000104078000000fb0066004000f0a288004f
:103ef0000200370060002000f0a2880001a38000cb
:103f0000f0a28000808f500005003a000000eb0016
:103f100000a38800a152210010c0b300804878009f
:103f2000a052210010407800e14f500006003200fe
:103f3000881d020000000000000f78000080eb00e8
:103f40009e0f1000d6ff3a00400020001007980096
:103f50001e0090000080fa00000006000600fa0033
:103f6000100798001e009000640040001040780088
:103f70000004e00007003d001e0090000080e80003
:103f8000104078000000fb00660040002007980009
:103f90000200370060002000200798002e009000eb
:103fa000000f7800080037001e0090009040780055
:103fb0001e0090000000e800100798000140780003
:103fc000f81d0200000000001e0fe9000080eb0059
:103fd0009e0f1000f4ff3a000080fa000000060077
:103fe0000000fa001032200090407800c0cfb300eb
:103ff00080c06000103220000148780000322000ac
:10400000104078007f40600001c4b30001407000a0
:1040100001322000804878002043a8002343a800f4
:1040200025e3a900203220009040780030c8b3007a
:1040300000c060000024a0002132200080487800e9
:10404000f1c3b300403220000148780091112100f3
:10405000e010200001087800010028002011200055
:10406000010878002011200090407800f0ccb300c7
:1040700000c060000044a0002111200080487800aa
:104080000108a9002108a900110020000033200028
:104090000108780001a8a90021a8a80021e3a80030
:0c40a00013e1a8000080fa0000000600f8
:020000040000fa
:108a3c002a15000002000000820000000000000067
:108a4c005e1400008400000080000000e2140000ae
:108a5c004800000082000000613104006132040013
:108a6c00613304007231040072320400723304006a
:108a7c00686f0100736f0800736a08007376020058
:108a8c0063610100676101006e761e00640a0000dc
:108a9c0000000300440400000001500064040000c6
:108aac000001500000000000000000000000000069
:108abc0000000000000080000010000042010000d7
:108acc0080000000421100000c010000800000003a
:108adc004e1200000c010000800000005a13000030
:0c8aec00040100008000000000000000f9
:020000040000fa
:108d5c00a0028800810078000000060040398800dd
:108d6c005005200070398800a00a20007039880056
:108d7c0029e7a800000000000000000029e7af0070
:108d8c00feff370000000600a00288008308bb002d
:108d9c008288bb0000000600a00288001100ba0007
:108dac009180ba00000006005400f8004239880097
:108dbc00a00288008108bb00500520007039880093
:108dcc00a00a20007039880029e7a80000000000e4
:108ddc000000000029e7af00feff37005400f90047
:048dec00000006007d
:020000040000fa
:108b5c000000fa000080fa00000006000000fa0095
:108b6c000080fa00000006000200fa00000f7800f6
:108b7c000080fa00000006000200fa00000f7800e6
:088b8c000080fa000000060061
:020000040000fa
:1093a000818b28000008b800823e200011000900cf
:1093b0004288d8002002b1000080090000000000af
:0c93c00000000600005004000000000047
:020000040000fa
:088af800004c00000500000025
:00000001FF
